{
  "contractName": "DiscrepancyReportManager",
  "abi": [
    {
      "inputs": [],
      "payable": false,
      "stateMutability": "nonpayable",
      "type": "constructor"
    },
    {
      "anonymous": false,
      "inputs": [
        {
          "indexed": true,
          "internalType": "uint256",
          "name": "DR_Count",
          "type": "uint256"
        }
      ],
      "name": "LogAcceptance",
      "type": "event"
    },
    {
      "anonymous": false,
      "inputs": [
        {
          "indexed": true,
          "internalType": "uint256",
          "name": "DR_Count",
          "type": "uint256"
        }
      ],
      "name": "LogDeclination",
      "type": "event"
    },
    {
      "anonymous": false,
      "inputs": [
        {
          "indexed": true,
          "internalType": "uint256",
          "name": "DR_Count",
          "type": "uint256"
        }
      ],
      "name": "LogFixed",
      "type": "event"
    },
    {
      "anonymous": false,
      "inputs": [
        {
          "indexed": true,
          "internalType": "uint256",
          "name": "DR_Count",
          "type": "uint256"
        }
      ],
      "name": "LogRejected",
      "type": "event"
    },
    {
      "anonymous": false,
      "inputs": [
        {
          "indexed": true,
          "internalType": "uint256",
          "name": "DR_Count",
          "type": "uint256"
        }
      ],
      "name": "LogResolved",
      "type": "event"
    },
    {
      "anonymous": false,
      "inputs": [
        {
          "indexed": true,
          "internalType": "uint256",
          "name": "DR_Count",
          "type": "uint256"
        }
      ],
      "name": "LogSubmission",
      "type": "event"
    },
    {
      "constant": true,
      "inputs": [],
      "name": "DR_Count",
      "outputs": [
        {
          "internalType": "uint256",
          "name": "",
          "type": "uint256"
        }
      ],
      "payable": false,
      "stateMutability": "view",
      "type": "function"
    },
    {
      "constant": true,
      "inputs": [],
      "name": "approvalAuthority",
      "outputs": [
        {
          "internalType": "address",
          "name": "",
          "type": "address"
        }
      ],
      "payable": false,
      "stateMutability": "view",
      "type": "function"
    },
    {
      "constant": false,
      "inputs": [
        {
          "internalType": "address",
          "name": "_contentOwner",
          "type": "address"
        },
        {
          "internalType": "string",
          "name": "_discrepancy",
          "type": "string"
        }
      ],
      "name": "submitDR",
      "outputs": [],
      "payable": false,
      "stateMutability": "nonpayable",
      "type": "function"
    },
    {
      "constant": false,
      "inputs": [
        {
          "internalType": "uint256",
          "name": "_DR",
          "type": "uint256"
        },
        {
          "internalType": "enum DiscrepancyReportManager.State",
          "name": "_state",
          "type": "uint8"
        }
      ],
      "name": "determineValidity",
      "outputs": [],
      "payable": false,
      "stateMutability": "nonpayable",
      "type": "function"
    },
    {
      "constant": false,
      "inputs": [
        {
          "internalType": "uint256",
          "name": "_DR",
          "type": "uint256"
        }
      ],
      "name": "resolveDiscrepancyReport",
      "outputs": [],
      "payable": false,
      "stateMutability": "nonpayable",
      "type": "function"
    },
    {
      "constant": false,
      "inputs": [
        {
          "internalType": "uint256",
          "name": "_DR",
          "type": "uint256"
        },
        {
          "internalType": "enum DiscrepancyReportManager.State",
          "name": "_state",
          "type": "uint8"
        }
      ],
      "name": "evaluateResolution",
      "outputs": [],
      "payable": false,
      "stateMutability": "nonpayable",
      "type": "function"
    },
    {
      "constant": true,
      "inputs": [
        {
          "internalType": "uint256",
          "name": "_DR",
          "type": "uint256"
        }
      ],
      "name": "fetchDiscrepancyReport",
      "outputs": [
        {
          "internalType": "address",
          "name": "submitter",
          "type": "address"
        },
        {
          "internalType": "address",
          "name": "contentOwner",
          "type": "address"
        },
        {
          "internalType": "enum DiscrepancyReportManager.State",
          "name": "state",
          "type": "uint8"
        },
        {
          "internalType": "string",
          "name": "discrepancy",
          "type": "string"
        }
      ],
      "payable": false,
      "stateMutability": "view",
      "type": "function"
    }
  ],
  "bytecode": "0x608060405234801561001057600080fd5b50336000806101000a81548173ffffffffffffffffffffffffffffffffffffffff021916908373ffffffffffffffffffffffffffffffffffffffff1602179055506000600181905550610f9a806100686000396000f3fe608060405234801561001057600080fd5b506004361061007d5760003560e01c806398098f111161005b57806398098f1114610229578063a1aa9d3914610247578063d8c15f4c14610322578063d9cc7557146103505761007d565b80630cee58631461008257806353c69e58146100cc57806382f2c4b014610107575b600080fd5b61008a61038b565b604051808273ffffffffffffffffffffffffffffffffffffffff1673ffffffffffffffffffffffffffffffffffffffff16815260200191505060405180910390f35b610105600480360360408110156100e257600080fd5b8101908080359060200190929190803560ff1690602001909291905050506103b0565b005b6101336004803603602081101561011d57600080fd5b8101908080359060200190929190505050610665565b604051808573ffffffffffffffffffffffffffffffffffffffff1673ffffffffffffffffffffffffffffffffffffffff1681526020018473ffffffffffffffffffffffffffffffffffffffff1673ffffffffffffffffffffffffffffffffffffffff1681526020018360058111156101a757fe5b60ff16815260200180602001828103825283818151815260200191508051906020019080838360005b838110156101eb5780820151818401526020810190506101d0565b50505050905090810190601f1680156102185780820380516001836020036101000a031916815260200191505b509550505050505060405180910390f35b6102316107c8565b6040518082815260200191505060405180910390f35b6103206004803603604081101561025d57600080fd5b81019080803573ffffffffffffffffffffffffffffffffffffffff1690602001909291908035906020019064010000000081111561029a57600080fd5b8201836020820111156102ac57600080fd5b803590602001918460018302840111640100000000831117156102ce57600080fd5b91908080601f016020809104026020016040519081016040528093929190818152602001838380828437600081840152601f19601f8201169050808301925050505050505091929192905050506107ce565b005b61034e6004803603602081101561033857600080fd5b8101908080359060200190929190505050610958565b005b6103896004803603604081101561036657600080fd5b8101908080359060200190929190803560ff169060200190929190505050610b54565b005b6000809054906101000a900473ffffffffffffffffffffffffffffffffffffffff1681565b816002600082815260200190815260200160002060010160009054906101000a900473ffffffffffffffffffffffffffffffffffffffff1673ffffffffffffffffffffffffffffffffffffffff163373ffffffffffffffffffffffffffffffffffffffff161461046b576040517f08c379a0000000000000000000000000000000000000000000000000000000008152600401808060200182810382526023815260200180610eef6023913960400191505060405180910390fd5b6000600581111561047857fe5b6002600085815260200190815260200160002060010160149054906101000a900460ff1660058111156104a757fe5b146104fd576040517f08c379a0000000000000000000000000000000000000000000000000000000008152600401808060200182810382526027815260200180610f126027913960400191505060405180910390fd5b6002600581111561050a57fe5b82600581111561051657fe5b148061053857506001600581111561052a57fe5b82600581111561053657fe5b145b6105aa576040517f08c379a00000000000000000000000000000000000000000000000000000000081526004018080602001828103825260188152602001807f496e76616c69642073746174652073656c656374696f6e2e000000000000000081525060200191505060405180910390fd5b816002600085815260200190815260200160002060010160146101000a81548160ff021916908360058111156105dc57fe5b0217905550600260058111156105ee57fe5b8260058111156105fa57fe5b141561063257827f4bd3d18682a1fd69d75a3bd1d2ea969787618836e29c41ce5b259cd4a868617860405160405180910390a2610660565b827fd3431b7a76689be76fd394b9277c38283eae793121ad3313ef2f560806b5116160405160405180910390a25b505050565b600080600060606002600086815260200190815260200160002060000160009054906101000a900473ffffffffffffffffffffffffffffffffffffffff1693506002600086815260200190815260200160002060010160009054906101000a900473ffffffffffffffffffffffffffffffffffffffff1692506002600086815260200190815260200160002060010160149054906101000a900460ff169150600260008681526020019081526020016000206002018054600181600116156101000203166002900480601f0160208091040260200160405190810160405280929190818152602001828054600181600116156101000203166002900480156107ae5780601f10610783576101008083540402835291602001916107ae565b820191906000526020600020905b81548152906001019060200180831161079157829003601f168201915b505050505090508383838393509350935093509193509193565b60015481565b60405180608001604052803373ffffffffffffffffffffffffffffffffffffffff1681526020018373ffffffffffffffffffffffffffffffffffffffff1681526020016000600581111561081e57fe5b81526020018281525060026000600154815260200190815260200160002060008201518160000160006101000a81548173ffffffffffffffffffffffffffffffffffffffff021916908373ffffffffffffffffffffffffffffffffffffffff16021790555060208201518160010160006101000a81548173ffffffffffffffffffffffffffffffffffffffff021916908373ffffffffffffffffffffffffffffffffffffffff16021790555060408201518160010160146101000a81548160ff021916908360058111156108ee57fe5b0217905550606082015181600201908051906020019061090f929190610e0d565b509050506001547fd62d83caa46521107db3e5a401d129bcae76aef7525e541331277ecec11cdefd60405160405180910390a26001600081548092919060010191905055505050565b806002600082815260200190815260200160002060010160009054906101000a900473ffffffffffffffffffffffffffffffffffffffff1673ffffffffffffffffffffffffffffffffffffffff163373ffffffffffffffffffffffffffffffffffffffff1614610a13576040517f08c379a0000000000000000000000000000000000000000000000000000000008152600401808060200182810382526023815260200180610eef6023913960400191505060405180910390fd5b60026005811115610a2057fe5b6002600084815260200190815260200160002060010160149054906101000a900460ff166005811115610a4f57fe5b1480610a94575060046005811115610a6357fe5b6002600084815260200190815260200160002060010160149054906101000a900460ff166005811115610a9257fe5b145b610ae9576040517f08c379a000000000000000000000000000000000000000000000000000000000815260040180806020018281038252602d815260200180610f39602d913960400191505060405180910390fd5b60036002600084815260200190815260200160002060010160146101000a81548160ff02191690836005811115610b1c57fe5b02179055506001547f0839b2dd84b8473ba2285ef6544968625639ab81422b4021937c9eb7d71d1f2c60405160405180910390a25050565b6000809054906101000a900473ffffffffffffffffffffffffffffffffffffffff1673ffffffffffffffffffffffffffffffffffffffff163373ffffffffffffffffffffffffffffffffffffffff1614610bf9576040517f08c379a000000000000000000000000000000000000000000000000000000000815260040180806020018281038252603c815260200180610eb3603c913960400191505060405180910390fd5b60036005811115610c0657fe5b6002600084815260200190815260200160002060010160149054906101000a900460ff166005811115610c3557fe5b14610ca8576040517f08c379a000000000000000000000000000000000000000000000000000000000815260040180806020018281038252601c8152602001807f4452206973206e6f74206d61726b656420275265736f6c766564272e0000000081525060200191505060405180910390fd5b600580811115610cb457fe5b816005811115610cc057fe5b1480610ce2575060046005811115610cd457fe5b816005811115610ce057fe5b145b610d54576040517f08c379a00000000000000000000000000000000000000000000000000000000081526004018080602001828103825260188152602001807f496e76616c69642073746174652073656c656374696f6e2e000000000000000081525060200191505060405180910390fd5b806002600084815260200190815260200160002060010160146101000a81548160ff02191690836005811115610d8657fe5b0217905550600580811115610d9757fe5b816005811115610da357fe5b1415610ddb57817f199ad69fe81f9a3f531a762217d9532615420f21a5105500bdda0ed40e5e7abe60405160405180910390a2610e09565b817fc0bb406031e51b3376c798dac5e21d7b041ffce1d9fcd17ecd003e0c205a74db60405160405180910390a25b5050565b828054600181600116156101000203166002900490600052602060002090601f016020900481019282601f10610e4e57805160ff1916838001178555610e7c565b82800160010185558215610e7c579182015b82811115610e7b578251825591602001919060010190610e60565b5b509050610e899190610e8d565b5090565b610eaf91905b80821115610eab576000816000905550600101610e93565b5090565b9056fe4f6e6c7920417070726f76616c20417574686f726974792063616e206576616c756174652061207375626d6974746564207265736f6c7574696f6e2e4f6e6c7920436f6e74656e74204f776e65722063616e2061636365737320746869732e44522076616c696469747920617320616c7265616479206265656e2064657465726d696e65642e4452206d757374206265206f662073746174652027416363657074656427206f72202752656a6563746564272ea265627a7a72315820203f782220f7d3c8815cb53a4be242c7712989307cb8b4140946c4c382d39dc664736f6c63430005100032",
  "source": "// SPDX-License-Identifier: MIT\npragma solidity >=0.4.22 <0.9.0;\n\ncontract DiscrepancyReportManager {\n\n  address public approvalAuthority;\n  uint public DR_Count;\n  mapping (uint => DiscrepancyReport) discrepancyReports;\n\n  enum State\n  {\n    New,\n    Declined,\n    Accepted,\n    Resolved,\n    Rejected,\n    Fixed\n  }\n\n  struct DiscrepancyReport\n  {\n    address submitter;\n    address contentOwner;\n    State state;\n    string discrepancy;\n  }\n\n/******************************/\n/*        Modifiers           */\n/******************************/\nmodifier isContentOwner(uint _DR)\n{\n  require(msg.sender == discrepancyReports[_DR].contentOwner, \"Only Content Owner can access this.\");\n  _;\n}\n\n/******************************/\n/*          Events            */\n/******************************/\nevent LogSubmission(uint indexed DR_Count);\nevent LogAcceptance(uint indexed DR_Count);\nevent LogDeclination(uint indexed DR_Count);\nevent LogResolved(uint indexed DR_Count);\nevent LogRejected(uint indexed DR_Count);\nevent LogFixed(uint indexed DR_Count);\n\n/******************************/\n/*    Contract Functions       */\n/******************************/\n  constructor()  public {\n    approvalAuthority = msg.sender;\n    DR_Count = 0;\n  }\n\n  //Allow submission of a new DR\n  function submitDR (address _contentOwner, string memory _discrepancy) public\n  {\n    discrepancyReports[DR_Count] = DiscrepancyReport({submitter: msg.sender,\n                                                      contentOwner: _contentOwner,\n                                                      state: State.New,\n                                                      discrepancy: _discrepancy });\n    emit LogSubmission(DR_Count);\n    DR_Count ++;\n  } \n\n  // Content owner to accept or decline DR\n  function determineValidity (uint _DR, State _state) public isContentOwner(_DR)\n  {\n    require(discrepancyReports[_DR].state == State.New, \"DR validity as already been determined.\");\n    require(_state == State.Accepted || _state == State.Declined, \"Invalid state selection.\");\n\n    discrepancyReports[_DR].state = _state;\n\n    if(_state == State.Accepted) emit LogAcceptance(_DR);\n    else emit LogDeclination(_DR);\n  }\n\n  //Content owner has resolved DR\n  function resolveDiscrepancyReport (uint _DR) public isContentOwner(_DR)\n  {\n    require(discrepancyReports[_DR].state == State.Accepted ||\n            discrepancyReports[_DR].state == State.Rejected,\n            \"DR must be of state 'Accepted' or 'Rejected'.\");\n\n    discrepancyReports[_DR].state = State.Resolved;\n    emit LogResolved(DR_Count);\n  }\n\n  //Approval Authority may accept or decline the 'Resolved' DR\n  function evaluateResolution (uint _DR, State _state) public\n  {\n    require(msg.sender == approvalAuthority,\"Only Approval Authority can evaluate a submitted resolution.\");\n    require(discrepancyReports[_DR].state == State.Resolved, \"DR is not marked 'Resolved'.\");\n    require(_state == State.Fixed || _state == State.Rejected, \"Invalid state selection.\");\n\n    discrepancyReports[_DR].state = _state;\n    if(_state == State.Fixed) emit LogFixed(_DR);\n    else emit LogRejected(_DR);\n  }\n\n  //This function required for testing\n  function fetchDiscrepancyReport(uint _DR) public view \n    returns (address submitter,address contentOwner, State state, string memory discrepancy) \n  { \n    submitter = discrepancyReports[_DR].submitter;\n    contentOwner = discrepancyReports[_DR].contentOwner;\n    state = discrepancyReports[_DR].state;\n    discrepancy = discrepancyReports[_DR].discrepancy;\n\n    return (submitter, contentOwner, state, discrepancy); \n  } \n}\n",
  "sourcePath": "/home/nick/blockchain-developer-bootcamp-final-project/contracts/DiscrepancyReportManager.sol",
  "compiler": {
    "name": "solc",
    "version": "0.5.16+commit.9c3226ce.Emscripten.clang"
  },
  "schemaVersion": "3.4.3",
  "updatedAt": "2021-11-21T23:31:33.750Z",
  "networkType": "ethereum",
  "devdoc": {
    "methods": {}
  },
  "userdoc": {
    "methods": {
      "constructor": "***************************"
    }
  }
}