{
  "contractName": "DiscrepancyReportManager",
  "abi": [
    {
      "inputs": [],
      "stateMutability": "nonpayable",
      "type": "constructor"
    },
    {
      "anonymous": false,
      "inputs": [
        {
          "indexed": true,
          "internalType": "uint256",
          "name": "DR_Count",
          "type": "uint256"
        }
      ],
      "name": "LogAcceptance",
      "type": "event"
    },
    {
      "anonymous": false,
      "inputs": [
        {
          "indexed": true,
          "internalType": "uint256",
          "name": "DR_Count",
          "type": "uint256"
        }
      ],
      "name": "LogDeclination",
      "type": "event"
    },
    {
      "anonymous": false,
      "inputs": [
        {
          "indexed": true,
          "internalType": "uint256",
          "name": "DR_Count",
          "type": "uint256"
        }
      ],
      "name": "LogFixed",
      "type": "event"
    },
    {
      "anonymous": false,
      "inputs": [
        {
          "indexed": true,
          "internalType": "uint256",
          "name": "DR_Count",
          "type": "uint256"
        }
      ],
      "name": "LogRejected",
      "type": "event"
    },
    {
      "anonymous": false,
      "inputs": [
        {
          "indexed": true,
          "internalType": "uint256",
          "name": "DR_Count",
          "type": "uint256"
        }
      ],
      "name": "LogResolved",
      "type": "event"
    },
    {
      "anonymous": false,
      "inputs": [
        {
          "indexed": true,
          "internalType": "uint256",
          "name": "DR_Count",
          "type": "uint256"
        }
      ],
      "name": "LogSubmission",
      "type": "event"
    },
    {
      "inputs": [],
      "name": "DR_Count",
      "outputs": [
        {
          "internalType": "uint256",
          "name": "",
          "type": "uint256"
        }
      ],
      "stateMutability": "view",
      "type": "function"
    },
    {
      "inputs": [],
      "name": "approvalAuthority",
      "outputs": [
        {
          "internalType": "address",
          "name": "",
          "type": "address"
        }
      ],
      "stateMutability": "view",
      "type": "function"
    },
    {
      "inputs": [
        {
          "internalType": "address",
          "name": "_contentOwner",
          "type": "address"
        },
        {
          "internalType": "string",
          "name": "_discrepancy",
          "type": "string"
        }
      ],
      "name": "submitDR",
      "outputs": [],
      "stateMutability": "nonpayable",
      "type": "function"
    },
    {
      "inputs": [
        {
          "internalType": "uint256",
          "name": "_DR",
          "type": "uint256"
        },
        {
          "internalType": "enum DiscrepancyReportManager.State",
          "name": "_state",
          "type": "uint8"
        }
      ],
      "name": "determineValidity",
      "outputs": [],
      "stateMutability": "nonpayable",
      "type": "function"
    },
    {
      "inputs": [
        {
          "internalType": "uint256",
          "name": "_DR",
          "type": "uint256"
        }
      ],
      "name": "resolveDiscrepancyReport",
      "outputs": [],
      "stateMutability": "nonpayable",
      "type": "function"
    },
    {
      "inputs": [
        {
          "internalType": "uint256",
          "name": "_DR",
          "type": "uint256"
        },
        {
          "internalType": "enum DiscrepancyReportManager.State",
          "name": "_state",
          "type": "uint8"
        }
      ],
      "name": "evaluateResolution",
      "outputs": [],
      "stateMutability": "nonpayable",
      "type": "function"
    },
    {
      "inputs": [
        {
          "internalType": "uint256",
          "name": "_DR",
          "type": "uint256"
        }
      ],
      "name": "fetchDiscrepancyReport",
      "outputs": [
        {
          "internalType": "address",
          "name": "submitter",
          "type": "address"
        },
        {
          "internalType": "address",
          "name": "contentOwner",
          "type": "address"
        },
        {
          "internalType": "enum DiscrepancyReportManager.State",
          "name": "state",
          "type": "uint8"
        },
        {
          "internalType": "string",
          "name": "discrepancy",
          "type": "string"
        }
      ],
      "stateMutability": "view",
      "type": "function"
    }
  ],
  "bytecode": "0x608060405234801561001057600080fd5b50336000806101000a81548173ffffffffffffffffffffffffffffffffffffffff021916908373ffffffffffffffffffffffffffffffffffffffff1602179055506000600181905550611882806100686000396000f3fe608060405234801561001057600080fd5b506004361061007d5760003560e01c806398098f111161005b57806398098f11146100ef578063a1aa9d391461010d578063d8c15f4c14610129578063d9cc7557146101455761007d565b80630cee58631461008257806353c69e58146100a057806382f2c4b0146100bc575b600080fd5b61008a610161565b6040516100979190610f7e565b60405180910390f35b6100ba60048036038101906100b59190611008565b610185565b005b6100d660048036038101906100d19190611048565b61051e565b6040516100e69493929190611185565b60405180910390f35b6100f7610665565b60405161010491906111e0565b60405180910390f35b6101276004803603810190610122919061135c565b61066b565b005b610143600480360381019061013e9190611048565b61087d565b005b61015f600480360381019061015a9190611008565b610b1c565b005b60008054906101000a900473ffffffffffffffffffffffffffffffffffffffff1681565b816000811015801561019957506001548111155b6101d8576040517f08c379a00000000000000000000000000000000000000000000000000000000081526004016101cf90611404565b60405180910390fd5b826002600082815260200190815260200160002060010160009054906101000a900473ffffffffffffffffffffffffffffffffffffffff1673ffffffffffffffffffffffffffffffffffffffff163373ffffffffffffffffffffffffffffffffffffffff161461027d576040517f08c379a000000000000000000000000000000000000000000000000000000000815260040161027490611496565b60405180910390fd5b6000600581111561029157610290611075565b5b6002600086815260200190815260200160002060010160149054906101000a900460ff1660058111156102c7576102c6611075565b5b14610307576040517f08c379a00000000000000000000000000000000000000000000000000000000081526004016102fe90611528565b60405180910390fd5b6002600581111561031b5761031a611075565b5b83600581111561032e5761032d611075565b5b148061035e57506001600581111561034957610348611075565b5b83600581111561035c5761035b611075565b5b145b61039d576040517f08c379a000000000000000000000000000000000000000000000000000000000815260040161039490611594565b60405180910390fd5b826002600086815260200190815260200160002060010160146101000a81548160ff021916908360058111156103d6576103d5611075565b5b0217905550600260058111156103ef576103ee611075565b5b83600581111561040257610401611075565b5b1415610492576002600581111561041c5761041b611075565b5b6002600086815260200190815260200160002060010160149054906101000a900460ff16600581111561045257610451611075565b5b146104605761045f6115b4565b5b837f4bd3d18682a1fd69d75a3bd1d2ea969787618836e29c41ce5b259cd4a868617860405160405180910390a2610518565b600160058111156104a6576104a5611075565b5b6002600086815260200190815260200160002060010160149054906101000a900460ff1660058111156104dc576104db611075565b5b146104ea576104e96115b4565b5b837fd3431b7a76689be76fd394b9277c38283eae793121ad3313ef2f560806b5116160405160405180910390a25b50505050565b600080600060606002600086815260200190815260200160002060000160009054906101000a900473ffffffffffffffffffffffffffffffffffffffff1693506002600086815260200190815260200160002060010160009054906101000a900473ffffffffffffffffffffffffffffffffffffffff1692506002600086815260200190815260200160002060010160149054906101000a900460ff1691506002600086815260200190815260200160002060020180546105de90611612565b80601f016020809104026020016040519081016040528092919081815260200182805461060a90611612565b80156106575780601f1061062c57610100808354040283529160200191610657565b820191906000526020600020905b81548152906001019060200180831161063a57829003601f168201915b505050505090509193509193565b60015481565b60405180608001604052803373ffffffffffffffffffffffffffffffffffffffff1681526020018373ffffffffffffffffffffffffffffffffffffffff168152602001600060058111156106c2576106c1611075565b5b81526020018281525060026000600154815260200190815260200160002060008201518160000160006101000a81548173ffffffffffffffffffffffffffffffffffffffff021916908373ffffffffffffffffffffffffffffffffffffffff16021790555060208201518160010160006101000a81548173ffffffffffffffffffffffffffffffffffffffff021916908373ffffffffffffffffffffffffffffffffffffffff16021790555060408201518160010160146101000a81548160ff0219169083600581111561079957610798611075565b5b021790555060608201518160020190805190602001906107ba929190610e9a565b509050503373ffffffffffffffffffffffffffffffffffffffff1660026000600154815260200190815260200160002060000160009054906101000a900473ffffffffffffffffffffffffffffffffffffffff1673ffffffffffffffffffffffffffffffffffffffff1614610832576108316115b4565b5b6001547fd62d83caa46521107db3e5a401d129bcae76aef7525e541331277ecec11cdefd60405160405180910390a26001600081548092919061087490611673565b91905055505050565b806000811015801561089157506001548111155b6108d0576040517f08c379a00000000000000000000000000000000000000000000000000000000081526004016108c790611404565b60405180910390fd5b816002600082815260200190815260200160002060010160009054906101000a900473ffffffffffffffffffffffffffffffffffffffff1673ffffffffffffffffffffffffffffffffffffffff163373ffffffffffffffffffffffffffffffffffffffff1614610975576040517f08c379a000000000000000000000000000000000000000000000000000000000815260040161096c90611496565b60405180910390fd5b6002600581111561098957610988611075565b5b6002600085815260200190815260200160002060010160149054906101000a900460ff1660058111156109bf576109be611075565b5b1480610a125750600460058111156109da576109d9611075565b5b6002600085815260200190815260200160002060010160149054906101000a900460ff166005811115610a1057610a0f611075565b5b145b610a51576040517f08c379a0000000000000000000000000000000000000000000000000000000008152600401610a489061172e565b60405180910390fd5b60036002600085815260200190815260200160002060010160146101000a81548160ff02191690836005811115610a8b57610a8a611075565b5b021790555060036005811115610aa457610aa3611075565b5b6002600085815260200190815260200160002060010160149054906101000a900460ff166005811115610ada57610ad9611075565b5b14610ae857610ae76115b4565b5b6001547f0839b2dd84b8473ba2285ef6544968625639ab81422b4021937c9eb7d71d1f2c60405160405180910390a2505050565b8160008110158015610b3057506001548111155b610b6f576040517f08c379a0000000000000000000000000000000000000000000000000000000008152600401610b6690611404565b60405180910390fd5b60008054906101000a900473ffffffffffffffffffffffffffffffffffffffff1673ffffffffffffffffffffffffffffffffffffffff163373ffffffffffffffffffffffffffffffffffffffff1614610bfd576040517f08c379a0000000000000000000000000000000000000000000000000000000008152600401610bf4906117c0565b60405180910390fd5b60036005811115610c1157610c10611075565b5b6002600085815260200190815260200160002060010160149054906101000a900460ff166005811115610c4757610c46611075565b5b14610c87576040517f08c379a0000000000000000000000000000000000000000000000000000000008152600401610c7e9061182c565b60405180910390fd5b600580811115610c9a57610c99611075565b5b826005811115610cad57610cac611075565b5b1480610cdd575060046005811115610cc857610cc7611075565b5b826005811115610cdb57610cda611075565b5b145b610d1c576040517f08c379a0000000000000000000000000000000000000000000000000000000008152600401610d1390611594565b60405180910390fd5b816002600085815260200190815260200160002060010160146101000a81548160ff02191690836005811115610d5557610d54611075565b5b0217905550600580811115610d6d57610d6c611075565b5b826005811115610d8057610d7f611075565b5b1415610e0f57600580811115610d9957610d98611075565b5b6002600085815260200190815260200160002060010160149054906101000a900460ff166005811115610dcf57610dce611075565b5b14610ddd57610ddc6115b4565b5b827f199ad69fe81f9a3f531a762217d9532615420f21a5105500bdda0ed40e5e7abe60405160405180910390a2610e95565b60046005811115610e2357610e22611075565b5b6002600085815260200190815260200160002060010160149054906101000a900460ff166005811115610e5957610e58611075565b5b14610e6757610e666115b4565b5b827fc0bb406031e51b3376c798dac5e21d7b041ffce1d9fcd17ecd003e0c205a74db60405160405180910390a25b505050565b828054610ea690611612565b90600052602060002090601f016020900481019282610ec85760008555610f0f565b82601f10610ee157805160ff1916838001178555610f0f565b82800160010185558215610f0f579182015b82811115610f0e578251825591602001919060010190610ef3565b5b509050610f1c9190610f20565b5090565b5b80821115610f39576000816000905550600101610f21565b5090565b600073ffffffffffffffffffffffffffffffffffffffff82169050919050565b6000610f6882610f3d565b9050919050565b610f7881610f5d565b82525050565b6000602082019050610f936000830184610f6f565b92915050565b6000604051905090565b600080fd5b600080fd5b6000819050919050565b610fc081610fad565b8114610fcb57600080fd5b50565b600081359050610fdd81610fb7565b92915050565b60068110610ff057600080fd5b50565b60008135905061100281610fe3565b92915050565b6000806040838503121561101f5761101e610fa3565b5b600061102d85828601610fce565b925050602061103e85828601610ff3565b9150509250929050565b60006020828403121561105e5761105d610fa3565b5b600061106c84828501610fce565b91505092915050565b7f4e487b7100000000000000000000000000000000000000000000000000000000600052602160045260246000fd5b600681106110b5576110b4611075565b5b50565b60008190506110c6826110a4565b919050565b60006110d6826110b8565b9050919050565b6110e6816110cb565b82525050565b600081519050919050565b600082825260208201905092915050565b60005b8381101561112657808201518184015260208101905061110b565b83811115611135576000848401525b50505050565b6000601f19601f8301169050919050565b6000611157826110ec565b61116181856110f7565b9350611171818560208601611108565b61117a8161113b565b840191505092915050565b600060808201905061119a6000830187610f6f565b6111a76020830186610f6f565b6111b460408301856110dd565b81810360608301526111c6818461114c565b905095945050505050565b6111da81610fad565b82525050565b60006020820190506111f560008301846111d1565b92915050565b61120481610f5d565b811461120f57600080fd5b50565b600081359050611221816111fb565b92915050565b600080fd5b600080fd5b7f4e487b7100000000000000000000000000000000000000000000000000000000600052604160045260246000fd5b6112698261113b565b810181811067ffffffffffffffff8211171561128857611287611231565b5b80604052505050565b600061129b610f99565b90506112a78282611260565b919050565b600067ffffffffffffffff8211156112c7576112c6611231565b5b6112d08261113b565b9050602081019050919050565b82818337600083830152505050565b60006112ff6112fa846112ac565b611291565b90508281526020810184848401111561131b5761131a61122c565b5b6113268482856112dd565b509392505050565b600082601f83011261134357611342611227565b5b81356113538482602086016112ec565b91505092915050565b6000806040838503121561137357611372610fa3565b5b600061138185828601611212565b925050602083013567ffffffffffffffff8111156113a2576113a1610fa8565b5b6113ae8582860161132e565b9150509250929050565b7f496e76616c6964204452207265666572656e636520676976656e2e0000000000600082015250565b60006113ee601b836110f7565b91506113f9826113b8565b602082019050919050565b6000602082019050818103600083015261141d816113e1565b9050919050565b7f4f6e6c7920436f6e74656e74204f776e65722063616e2061636365737320746860008201527f69732e0000000000000000000000000000000000000000000000000000000000602082015250565b60006114806023836110f7565b915061148b82611424565b604082019050919050565b600060208201905081810360008301526114af81611473565b9050919050565b7f44522076616c696469747920617320616c7265616479206265656e206465746560008201527f726d696e65642e00000000000000000000000000000000000000000000000000602082015250565b60006115126027836110f7565b915061151d826114b6565b604082019050919050565b6000602082019050818103600083015261154181611505565b9050919050565b7f496e76616c69642073746174652073656c656374696f6e2e0000000000000000600082015250565b600061157e6018836110f7565b915061158982611548565b602082019050919050565b600060208201905081810360008301526115ad81611571565b9050919050565b7f4e487b7100000000000000000000000000000000000000000000000000000000600052600160045260246000fd5b7f4e487b7100000000000000000000000000000000000000000000000000000000600052602260045260246000fd5b6000600282049050600182168061162a57607f821691505b6020821081141561163e5761163d6115e3565b5b50919050565b7f4e487b7100000000000000000000000000000000000000000000000000000000600052601160045260246000fd5b600061167e82610fad565b91507fffffffffffffffffffffffffffffffffffffffffffffffffffffffffffffffff8214156116b1576116b0611644565b5b600182019050919050565b7f4452206d757374206265206f662073746174652027416363657074656427206f60008201527f72202752656a6563746564272e00000000000000000000000000000000000000602082015250565b6000611718602d836110f7565b9150611723826116bc565b604082019050919050565b600060208201905081810360008301526117478161170b565b9050919050565b7f4f6e6c7920417070726f76616c20417574686f726974792063616e206576616c60008201527f756174652061207375626d6974746564207265736f6c7574696f6e2e00000000602082015250565b60006117aa603c836110f7565b91506117b58261174e565b604082019050919050565b600060208201905081810360008301526117d98161179d565b9050919050565b7f4452206973206e6f74206d61726b656420275265736f6c766564272e00000000600082015250565b6000611816601c836110f7565b9150611821826117e0565b602082019050919050565b6000602082019050818103600083015261184581611809565b905091905056fea2646970667358221220c59de1544b6776eef441e994d8d03ea00fc81405003d64cff873c4bf7a04e71764736f6c634300080a0033",
  "immutableReferences": {},
  "source": "// SPDX-License-Identifier: MIT\npragma solidity 0.8.10;\n\n/// @title A managment tool to track Discrepancy Report lifecycles\n/// @author Nick McNally\n/// @notice This contract will basically track the lifecycle of a Sumbitted DR\n/// @dev Future implementation should include milti-signature for the content owner and approval autority.\ncontract DiscrepancyReportManager {\n\n  address public approvalAuthority;\n  uint public DR_Count;\n  mapping (uint => DiscrepancyReport) discrepancyReports;\n\n  enum State\n  {\n    New,\n    Declined,\n    Accepted,\n    Resolved,\n    Rejected,\n    Fixed\n  }\n\n  struct DiscrepancyReport\n  {\n    address submitter;\n    address contentOwner;\n    State state;\n    string discrepancy;\n  }\n\n/******************************/\n/*        Modifiers           */\n/******************************/\n/// @notice Only the owner of the content the DR is written against may access certain functions.\n/// @dev There is no modifier like this for the Approval authority as they only have one access restriced function.\n/// @param _DR The index of the specified Discrepancy Report\nmodifier isContentOwner(uint _DR)\n{\n  require(msg.sender == discrepancyReports[_DR].contentOwner, \"Only Content Owner can access this.\");\n  _;\n}\n/// @notice DR submitted must be within current DR_Count\n/// @param _DR The index of the specified Discrepancy Report\nmodifier isValidDR(uint _DR)\n{\n  require(_DR >=0 && _DR <= DR_Count, \"Invalid DR reference given.\");\n  _;\n}\n\n/******************************/\n/*          Events            */\n/******************************/\n/// @notice Logs submission of a new Discrepancy Report\n/// @param DR_Count The index of the specified Discrepancy Report\nevent LogSubmission(uint indexed DR_Count);\n\n/// @notice Logs acceptance of Discrepancy Report validity\n/// @param DR_Count The index of the specified Discrepancy Report\nevent LogAcceptance(uint indexed DR_Count);\n\n/// @notice Logs declination of Discrepancy Report validity\n/// @param DR_Count The index of the specified Discrepancy Report\nevent LogDeclination(uint indexed DR_Count);\n\n/// @notice Log that a Discrepancy Report has been resolved by the content owner.\n/// @param DR_Count The index of the specified Discrepancy Report\nevent LogResolved(uint indexed DR_Count);\n\n/// @notice Logs rejection of a Discrepancy Report resolution\n/// @param DR_Count The index of the specified Discrepancy Report\nevent LogRejected(uint indexed DR_Count);\n\n/// @notice Logs acceptance of a Discrepancy Report resolution\n/// @param DR_Count The index of the specified Discrepancy Report\nevent LogFixed(uint indexed DR_Count);\n\n/******************************/\n/*    Contract Functions      */\n/******************************/\n/// @notice Contract constructor\n/// @dev The Approval Authority is currently the address that instantiates the contract. Future progress should allow graceful transfer of Approval Authority.\n  constructor() {\n    approvalAuthority = msg.sender;\n    DR_Count = 0;\n  }\n\n  /// @notice Submission of a new DR\n  /// @dev Sumitter is msg.sender\n  /// @param _contentOwner The owner of the content the DR is written against\n  /// @param _discrepancy Complaint about the content from the submitter\n  function submitDR (address _contentOwner, string memory _discrepancy) public\n  {\n    discrepancyReports[DR_Count] = DiscrepancyReport({submitter: msg.sender,\n                                                      contentOwner: _contentOwner,\n                                                      state: State.New,\n                                                      discrepancy: _discrepancy });\n    assert(discrepancyReports[DR_Count].submitter == msg.sender);                                                    \n    emit LogSubmission(DR_Count);\n    DR_Count ++;\n  } \n\n  /// @notice Content owner to accept or decline DR\n  /// @param _DR The index of the specified Discrepancy Report\n  /// @param _state State selection, only accepted or declined are valid\n  function determineValidity (uint _DR, State _state) public isValidDR(_DR) isContentOwner(_DR) \n  {\n    require(discrepancyReports[_DR].state == State.New, \"DR validity as already been determined.\");\n    require(_state == State.Accepted || _state == State.Declined, \"Invalid state selection.\");\n\n    discrepancyReports[_DR].state = _state;\n\n    if(_state == State.Accepted)\n    {\n      assert(discrepancyReports[_DR].state == State.Accepted);\n      emit LogAcceptance(_DR);      \n    }\n    else\n    {\n      assert(discrepancyReports[_DR].state == State.Declined);\n      emit LogDeclination(_DR);\n    }\n\n  }\n\n  /// @notice Content owner has resolved DR\n  /// @param _DR The index of the specified Discrepancy Report\n  function resolveDiscrepancyReport (uint _DR) public isValidDR(_DR) isContentOwner(_DR) \n  {\n    require(discrepancyReports[_DR].state == State.Accepted ||\n            discrepancyReports[_DR].state == State.Rejected,\n            \"DR must be of state 'Accepted' or 'Rejected'.\");\n\n    discrepancyReports[_DR].state = State.Resolved;\n    assert(discrepancyReports[_DR].state == State.Resolved);\n    emit LogResolved(DR_Count);\n  }\n\n  /// @notice Approval Authority may accept or reject the 'Resolved' DR\n  /// @param _DR The index of the specified Discrepancy Report\n  /// @param _state State selection, only rejected or fixed are valid\n  function evaluateResolution (uint _DR, State _state) public isValidDR(_DR)\n  {\n    require(msg.sender == approvalAuthority,\"Only Approval Authority can evaluate a submitted resolution.\");\n    require(discrepancyReports[_DR].state == State.Resolved, \"DR is not marked 'Resolved'.\");\n    require(_state == State.Fixed || _state == State.Rejected, \"Invalid state selection.\");\n\n    discrepancyReports[_DR].state = _state;\n    if(_state == State.Fixed)\n    {\n      assert(discrepancyReports[_DR].state == State.Fixed);\n      emit LogFixed(_DR);\n    } \n    else \n    {\n      assert(discrepancyReports[_DR].state == State.Rejected);\n      emit LogRejected(_DR);\n    }\n  }\n\n  /// @dev This function required for testing\n  function fetchDiscrepancyReport(uint _DR) public view \n    returns (address submitter,address contentOwner, State state, string memory discrepancy) \n  { \n    submitter = discrepancyReports[_DR].submitter;\n    contentOwner = discrepancyReports[_DR].contentOwner;\n    state = discrepancyReports[_DR].state;\n    discrepancy = discrepancyReports[_DR].discrepancy;\n\n    return (submitter, contentOwner, state, discrepancy); \n  } \n}\n",
  "sourcePath": "/home/nick/blockchain-developer-bootcamp-final-project/contracts/DiscrepancyReportManager.sol",
  "compiler": {
    "name": "solc",
    "version": "0.8.10+commit.fc410830.Emscripten.clang"
  },
  "schemaVersion": "3.4.3",
  "updatedAt": "2021-11-24T19:56:09.919Z",
  "devdoc": {
    "author": "Nick McNally",
    "details": "Future implementation should include milti-signature for the content owner and approval autority.",
    "events": {
      "LogAcceptance(uint256)": {
        "params": {
          "DR_Count": "The index of the specified Discrepancy Report"
        }
      },
      "LogDeclination(uint256)": {
        "params": {
          "DR_Count": "The index of the specified Discrepancy Report"
        }
      },
      "LogFixed(uint256)": {
        "params": {
          "DR_Count": "The index of the specified Discrepancy Report"
        }
      },
      "LogRejected(uint256)": {
        "params": {
          "DR_Count": "The index of the specified Discrepancy Report"
        }
      },
      "LogResolved(uint256)": {
        "params": {
          "DR_Count": "The index of the specified Discrepancy Report"
        }
      },
      "LogSubmission(uint256)": {
        "params": {
          "DR_Count": "The index of the specified Discrepancy Report"
        }
      }
    },
    "kind": "dev",
    "methods": {
      "constructor": {
        "details": "The Approval Authority is currently the address that instantiates the contract. Future progress should allow graceful transfer of Approval Authority."
      },
      "determineValidity(uint256,uint8)": {
        "params": {
          "_DR": "The index of the specified Discrepancy Report",
          "_state": "State selection, only accepted or declined are valid"
        }
      },
      "evaluateResolution(uint256,uint8)": {
        "params": {
          "_DR": "The index of the specified Discrepancy Report",
          "_state": "State selection, only rejected or fixed are valid"
        }
      },
      "fetchDiscrepancyReport(uint256)": {
        "details": "This function required for testing"
      },
      "resolveDiscrepancyReport(uint256)": {
        "params": {
          "_DR": "The index of the specified Discrepancy Report"
        }
      },
      "submitDR(address,string)": {
        "details": "Sumitter is msg.sender",
        "params": {
          "_contentOwner": "The owner of the content the DR is written against",
          "_discrepancy": "Complaint about the content from the submitter"
        }
      }
    },
    "title": "A managment tool to track Discrepancy Report lifecycles",
    "version": 1
  },
  "userdoc": {
    "events": {
      "LogAcceptance(uint256)": {
        "notice": "Logs acceptance of Discrepancy Report validity"
      },
      "LogDeclination(uint256)": {
        "notice": "Logs declination of Discrepancy Report validity"
      },
      "LogFixed(uint256)": {
        "notice": "Logs acceptance of a Discrepancy Report resolution"
      },
      "LogRejected(uint256)": {
        "notice": "Logs rejection of a Discrepancy Report resolution"
      },
      "LogResolved(uint256)": {
        "notice": "Log that a Discrepancy Report has been resolved by the content owner."
      },
      "LogSubmission(uint256)": {
        "notice": "Logs submission of a new Discrepancy Report"
      }
    },
    "kind": "user",
    "methods": {
      "constructor": {
        "notice": "Contract constructor"
      },
      "determineValidity(uint256,uint8)": {
        "notice": "Content owner to accept or decline DR"
      },
      "evaluateResolution(uint256,uint8)": {
        "notice": "Approval Authority may accept or reject the 'Resolved' DR"
      },
      "resolveDiscrepancyReport(uint256)": {
        "notice": "Content owner has resolved DR"
      },
      "submitDR(address,string)": {
        "notice": "Submission of a new DR"
      }
    },
    "notice": "This contract will basically track the lifecycle of a Sumbitted DR",
    "version": 1
  }
}