{
  "contractName": "DiscrepancyReportManager",
  "abi": [
    {
      "inputs": [],
      "stateMutability": "nonpayable",
      "type": "constructor"
    },
    {
      "anonymous": false,
      "inputs": [
        {
          "indexed": true,
          "internalType": "uint256",
          "name": "DR_Count",
          "type": "uint256"
        }
      ],
      "name": "LogAcceptance",
      "type": "event"
    },
    {
      "anonymous": false,
      "inputs": [
        {
          "indexed": true,
          "internalType": "uint256",
          "name": "DR_Count",
          "type": "uint256"
        }
      ],
      "name": "LogDeclination",
      "type": "event"
    },
    {
      "anonymous": false,
      "inputs": [
        {
          "indexed": true,
          "internalType": "uint256",
          "name": "DR_Count",
          "type": "uint256"
        }
      ],
      "name": "LogFixed",
      "type": "event"
    },
    {
      "anonymous": false,
      "inputs": [
        {
          "indexed": true,
          "internalType": "uint256",
          "name": "DR_Count",
          "type": "uint256"
        }
      ],
      "name": "LogRejected",
      "type": "event"
    },
    {
      "anonymous": false,
      "inputs": [
        {
          "indexed": true,
          "internalType": "uint256",
          "name": "DR_Count",
          "type": "uint256"
        }
      ],
      "name": "LogResolved",
      "type": "event"
    },
    {
      "anonymous": false,
      "inputs": [
        {
          "indexed": true,
          "internalType": "uint256",
          "name": "DR_Count",
          "type": "uint256"
        }
      ],
      "name": "LogSubmission",
      "type": "event"
    },
    {
      "inputs": [],
      "name": "DR_Count",
      "outputs": [
        {
          "internalType": "uint256",
          "name": "",
          "type": "uint256"
        }
      ],
      "stateMutability": "view",
      "type": "function",
      "constant": true
    },
    {
      "inputs": [
        {
          "internalType": "address",
          "name": "_contentOwner",
          "type": "address"
        },
        {
          "internalType": "string",
          "name": "_discrepancy",
          "type": "string"
        }
      ],
      "name": "submitDR",
      "outputs": [],
      "stateMutability": "nonpayable",
      "type": "function"
    },
    {
      "inputs": [
        {
          "internalType": "uint256",
          "name": "_DR",
          "type": "uint256"
        },
        {
          "internalType": "enum DiscrepancyReportManager.State",
          "name": "_state",
          "type": "uint8"
        }
      ],
      "name": "determineValidity",
      "outputs": [],
      "stateMutability": "nonpayable",
      "type": "function"
    },
    {
      "inputs": [
        {
          "internalType": "uint256",
          "name": "_DR",
          "type": "uint256"
        }
      ],
      "name": "resolveDiscrepancyReport",
      "outputs": [],
      "stateMutability": "nonpayable",
      "type": "function"
    },
    {
      "inputs": [
        {
          "internalType": "uint256",
          "name": "_DR",
          "type": "uint256"
        },
        {
          "internalType": "enum DiscrepancyReportManager.State",
          "name": "_state",
          "type": "uint8"
        }
      ],
      "name": "evaluateResolution",
      "outputs": [],
      "stateMutability": "nonpayable",
      "type": "function"
    },
    {
      "inputs": [
        {
          "internalType": "uint256",
          "name": "_DR",
          "type": "uint256"
        }
      ],
      "name": "fetchDiscrepancyReport",
      "outputs": [
        {
          "internalType": "address",
          "name": "submitter",
          "type": "address"
        },
        {
          "internalType": "address",
          "name": "contentOwner",
          "type": "address"
        },
        {
          "internalType": "enum DiscrepancyReportManager.State",
          "name": "state",
          "type": "uint8"
        },
        {
          "internalType": "string",
          "name": "discrepancy",
          "type": "string"
        }
      ],
      "stateMutability": "view",
      "type": "function",
      "constant": true
    }
  ],
  "bytecode": "0x608060405234801561001057600080fd5b5060008081905550611845806100276000396000f3fe608060405234801561001057600080fd5b50600436106100625760003560e01c806353c69e581461006757806382f2c4b01461008357806398098f11146100b6578063a1aa9d39146100d4578063d8c15f4c146100f0578063d9cc75571461010c575b600080fd5b610081600480360381019061007c9190610f7d565b610128565b005b61009d60048036038101906100989190610fbd565b6104c1565b6040516100ad949392919061113b565b60405180910390f35b6100be610608565b6040516100cb9190611196565b60405180910390f35b6100ee60048036038101906100e99190611312565b61060e565b005b61010a60048036038101906101059190610fbd565b610822565b005b61012660048036038101906101219190610f7d565b610ac1565b005b81600054811115801561013c575060008110155b61017b576040517f08c379a0000000000000000000000000000000000000000000000000000000008152600401610172906113ba565b60405180910390fd5b826001600082815260200190815260200160002060010160009054906101000a900473ffffffffffffffffffffffffffffffffffffffff1673ffffffffffffffffffffffffffffffffffffffff163373ffffffffffffffffffffffffffffffffffffffff1614610220576040517f08c379a00000000000000000000000000000000000000000000000000000000081526004016102179061144c565b60405180910390fd5b600060058111156102345761023361102b565b5b6001600086815260200190815260200160002060010160149054906101000a900460ff16600581111561026a5761026961102b565b5b146102aa576040517f08c379a00000000000000000000000000000000000000000000000000000000081526004016102a1906114de565b60405180910390fd5b600260058111156102be576102bd61102b565b5b8360058111156102d1576102d061102b565b5b14806103015750600160058111156102ec576102eb61102b565b5b8360058111156102ff576102fe61102b565b5b145b610340576040517f08c379a00000000000000000000000000000000000000000000000000000000081526004016103379061154a565b60405180910390fd5b826001600086815260200190815260200160002060010160146101000a81548160ff021916908360058111156103795761037861102b565b5b0217905550600260058111156103925761039161102b565b5b8360058111156103a5576103a461102b565b5b141561043557600260058111156103bf576103be61102b565b5b6001600086815260200190815260200160002060010160149054906101000a900460ff1660058111156103f5576103f461102b565b5b146104035761040261156a565b5b837f4bd3d18682a1fd69d75a3bd1d2ea969787618836e29c41ce5b259cd4a868617860405160405180910390a26104bb565b600160058111156104495761044861102b565b5b6001600086815260200190815260200160002060010160149054906101000a900460ff16600581111561047f5761047e61102b565b5b1461048d5761048c61156a565b5b837fd3431b7a76689be76fd394b9277c38283eae793121ad3313ef2f560806b5116160405160405180910390a25b50505050565b600080600060606001600086815260200190815260200160002060000160009054906101000a900473ffffffffffffffffffffffffffffffffffffffff1693506001600086815260200190815260200160002060010160009054906101000a900473ffffffffffffffffffffffffffffffffffffffff1692506001600086815260200190815260200160002060010160149054906101000a900460ff169150600160008681526020019081526020016000206002018054610581906115c8565b80601f01602080910402602001604051908101604052809291908181526020018280546105ad906115c8565b80156105fa5780601f106105cf576101008083540402835291602001916105fa565b820191906000526020600020905b8154815290600101906020018083116105dd57829003601f168201915b505050505090509193509193565b60005481565b60405180608001604052803373ffffffffffffffffffffffffffffffffffffffff1681526020018373ffffffffffffffffffffffffffffffffffffffff168152602001600060058111156106655761066461102b565b5b815260200182815250600160008054815260200190815260200160002060008201518160000160006101000a81548173ffffffffffffffffffffffffffffffffffffffff021916908373ffffffffffffffffffffffffffffffffffffffff16021790555060208201518160010160006101000a81548173ffffffffffffffffffffffffffffffffffffffff021916908373ffffffffffffffffffffffffffffffffffffffff16021790555060408201518160010160146101000a81548160ff0219169083600581111561073b5761073a61102b565b5b0217905550606082015181600201908051906020019061075c929190610e6b565b509050503373ffffffffffffffffffffffffffffffffffffffff16600160008054815260200190815260200160002060000160009054906101000a900473ffffffffffffffffffffffffffffffffffffffff1673ffffffffffffffffffffffffffffffffffffffff16146107d3576107d261156a565b5b6000547fd62d83caa46521107db3e5a401d129bcae76aef7525e541331277ecec11cdefd60405160405180910390a26108186001600054610e5590919063ffffffff16565b6000819055505050565b806000548111158015610836575060008110155b610875576040517f08c379a000000000000000000000000000000000000000000000000000000000815260040161086c906113ba565b60405180910390fd5b816001600082815260200190815260200160002060010160009054906101000a900473ffffffffffffffffffffffffffffffffffffffff1673ffffffffffffffffffffffffffffffffffffffff163373ffffffffffffffffffffffffffffffffffffffff161461091a576040517f08c379a00000000000000000000000000000000000000000000000000000000081526004016109119061144c565b60405180910390fd5b6002600581111561092e5761092d61102b565b5b6001600085815260200190815260200160002060010160149054906101000a900460ff1660058111156109645761096361102b565b5b14806109b757506004600581111561097f5761097e61102b565b5b6001600085815260200190815260200160002060010160149054906101000a900460ff1660058111156109b5576109b461102b565b5b145b6109f6576040517f08c379a00000000000000000000000000000000000000000000000000000000081526004016109ed9061166c565b60405180910390fd5b60036001600085815260200190815260200160002060010160146101000a81548160ff02191690836005811115610a3057610a2f61102b565b5b021790555060036005811115610a4957610a4861102b565b5b6001600085815260200190815260200160002060010160149054906101000a900460ff166005811115610a7f57610a7e61102b565b5b14610a8d57610a8c61156a565b5b6000547f0839b2dd84b8473ba2285ef6544968625639ab81422b4021937c9eb7d71d1f2c60405160405180910390a2505050565b816000548111158015610ad5575060008110155b610b14576040517f08c379a0000000000000000000000000000000000000000000000000000000008152600401610b0b906113ba565b60405180910390fd5b3373ffffffffffffffffffffffffffffffffffffffff166001600085815260200190815260200160002060000160009054906101000a900473ffffffffffffffffffffffffffffffffffffffff1673ffffffffffffffffffffffffffffffffffffffff1614610bb8576040517f08c379a0000000000000000000000000000000000000000000000000000000008152600401610baf906116fe565b60405180910390fd5b60036005811115610bcc57610bcb61102b565b5b6001600085815260200190815260200160002060010160149054906101000a900460ff166005811115610c0257610c0161102b565b5b14610c42576040517f08c379a0000000000000000000000000000000000000000000000000000000008152600401610c399061176a565b60405180910390fd5b600580811115610c5557610c5461102b565b5b826005811115610c6857610c6761102b565b5b1480610c98575060046005811115610c8357610c8261102b565b5b826005811115610c9657610c9561102b565b5b145b610cd7576040517f08c379a0000000000000000000000000000000000000000000000000000000008152600401610cce9061154a565b60405180910390fd5b816001600085815260200190815260200160002060010160146101000a81548160ff02191690836005811115610d1057610d0f61102b565b5b0217905550600580811115610d2857610d2761102b565b5b826005811115610d3b57610d3a61102b565b5b1415610dca57600580811115610d5457610d5361102b565b5b6001600085815260200190815260200160002060010160149054906101000a900460ff166005811115610d8a57610d8961102b565b5b14610d9857610d9761156a565b5b827f199ad69fe81f9a3f531a762217d9532615420f21a5105500bdda0ed40e5e7abe60405160405180910390a2610e50565b60046005811115610dde57610ddd61102b565b5b6001600085815260200190815260200160002060010160149054906101000a900460ff166005811115610e1457610e1361102b565b5b14610e2257610e2161156a565b5b827fc0bb406031e51b3376c798dac5e21d7b041ffce1d9fcd17ecd003e0c205a74db60405160405180910390a25b505050565b60008183610e6391906117b9565b905092915050565b828054610e77906115c8565b90600052602060002090601f016020900481019282610e995760008555610ee0565b82601f10610eb257805160ff1916838001178555610ee0565b82800160010185558215610ee0579182015b82811115610edf578251825591602001919060010190610ec4565b5b509050610eed9190610ef1565b5090565b5b80821115610f0a576000816000905550600101610ef2565b5090565b6000604051905090565b600080fd5b600080fd5b6000819050919050565b610f3581610f22565b8114610f4057600080fd5b50565b600081359050610f5281610f2c565b92915050565b60068110610f6557600080fd5b50565b600081359050610f7781610f58565b92915050565b60008060408385031215610f9457610f93610f18565b5b6000610fa285828601610f43565b9250506020610fb385828601610f68565b9150509250929050565b600060208284031215610fd357610fd2610f18565b5b6000610fe184828501610f43565b91505092915050565b600073ffffffffffffffffffffffffffffffffffffffff82169050919050565b600061101582610fea565b9050919050565b6110258161100a565b82525050565b7f4e487b7100000000000000000000000000000000000000000000000000000000600052602160045260246000fd5b6006811061106b5761106a61102b565b5b50565b600081905061107c8261105a565b919050565b600061108c8261106e565b9050919050565b61109c81611081565b82525050565b600081519050919050565b600082825260208201905092915050565b60005b838110156110dc5780820151818401526020810190506110c1565b838111156110eb576000848401525b50505050565b6000601f19601f8301169050919050565b600061110d826110a2565b61111781856110ad565b93506111278185602086016110be565b611130816110f1565b840191505092915050565b6000608082019050611150600083018761101c565b61115d602083018661101c565b61116a6040830185611093565b818103606083015261117c8184611102565b905095945050505050565b61119081610f22565b82525050565b60006020820190506111ab6000830184611187565b92915050565b6111ba8161100a565b81146111c557600080fd5b50565b6000813590506111d7816111b1565b92915050565b600080fd5b600080fd5b7f4e487b7100000000000000000000000000000000000000000000000000000000600052604160045260246000fd5b61121f826110f1565b810181811067ffffffffffffffff8211171561123e5761123d6111e7565b5b80604052505050565b6000611251610f0e565b905061125d8282611216565b919050565b600067ffffffffffffffff82111561127d5761127c6111e7565b5b611286826110f1565b9050602081019050919050565b82818337600083830152505050565b60006112b56112b084611262565b611247565b9050828152602081018484840111156112d1576112d06111e2565b5b6112dc848285611293565b509392505050565b600082601f8301126112f9576112f86111dd565b5b81356113098482602086016112a2565b91505092915050565b6000806040838503121561132957611328610f18565b5b6000611337858286016111c8565b925050602083013567ffffffffffffffff81111561135857611357610f1d565b5b611364858286016112e4565b9150509250929050565b7f496e76616c6964204452207265666572656e636520676976656e2e0000000000600082015250565b60006113a4601b836110ad565b91506113af8261136e565b602082019050919050565b600060208201905081810360008301526113d381611397565b9050919050565b7f4f6e6c7920436f6e74656e74204f776e65722063616e2061636365737320746860008201527f69732e0000000000000000000000000000000000000000000000000000000000602082015250565b60006114366023836110ad565b9150611441826113da565b604082019050919050565b6000602082019050818103600083015261146581611429565b9050919050565b7f44522076616c696469747920617320616c7265616479206265656e206465746560008201527f726d696e65642e00000000000000000000000000000000000000000000000000602082015250565b60006114c86027836110ad565b91506114d38261146c565b604082019050919050565b600060208201905081810360008301526114f7816114bb565b9050919050565b7f496e76616c69642073746174652073656c656374696f6e2e0000000000000000600082015250565b60006115346018836110ad565b915061153f826114fe565b602082019050919050565b6000602082019050818103600083015261156381611527565b9050919050565b7f4e487b7100000000000000000000000000000000000000000000000000000000600052600160045260246000fd5b7f4e487b7100000000000000000000000000000000000000000000000000000000600052602260045260246000fd5b600060028204905060018216806115e057607f821691505b602082108114156115f4576115f3611599565b5b50919050565b7f4452206d757374206265206f662073746174652027416363657074656427206f60008201527f72202752656a6563746564272e00000000000000000000000000000000000000602082015250565b6000611656602d836110ad565b9150611661826115fa565b604082019050919050565b6000602082019050818103600083015261168581611649565b9050919050565b7f4f6e6c79205375626d69747465722063616e206576616c75617465206120737560008201527f626d6974746564207265736f6c7574696f6e2e00000000000000000000000000602082015250565b60006116e86033836110ad565b91506116f38261168c565b604082019050919050565b60006020820190508181036000830152611717816116db565b9050919050565b7f4452206973206e6f74206d61726b656420275265736f6c766564272e00000000600082015250565b6000611754601c836110ad565b915061175f8261171e565b602082019050919050565b6000602082019050818103600083015261178381611747565b9050919050565b7f4e487b7100000000000000000000000000000000000000000000000000000000600052601160045260246000fd5b60006117c482610f22565b91506117cf83610f22565b9250827fffffffffffffffffffffffffffffffffffffffffffffffffffffffffffffffff038211156118045761180361178a565b5b82820190509291505056fea26469706673582212205065bf70c4db19ab7641e81c8476f66ce35d6746b03ee0aed02829d6f4b6d25864736f6c634300080a0033",
  "immutableReferences": {},
  "source": "// SPDX-License-Identifier: MIT\npragma solidity 0.8.10;\n\nimport \"@openzeppelin/contracts/utils/math/SafeMath.sol\";\n\n/// @title A managment tool to track Discrepancy Report lifecycles\n/// @author Nick McNally\n/// @notice This contract will basically track the lifecycle of a Sumbitted DR\n/// @dev Future implementation should include milti-signature authority for the content owner and submitter.\ncontract DiscrepancyReportManager {\n  using SafeMath for uint256;\n\n  uint public DR_Count;\n  mapping (uint => DiscrepancyReport) discrepancyReports;\n\n  enum State\n  {\n    New,\n    Declined,\n    Accepted,\n    Resolved,\n    Rejected,\n    Fixed\n  }\n\n  struct DiscrepancyReport\n  {\n    address submitter;\n    address contentOwner;\n    State state;\n    string discrepancy;\n  }\n\n/******************************/\n/*        Modifiers           */\n/******************************/\n/// @notice Only the owner of the content the DR is written against may access certain functions.\n/// @dev There is no modifier like this for the Submitter as they only have one access restriced function.\n/// @param _DR The index of the specified Discrepancy Report\nmodifier isContentOwner(uint _DR)\n{\n  require(msg.sender == discrepancyReports[_DR].contentOwner, \"Only Content Owner can access this.\");\n  _;\n}\n/// @notice DR submitted must be within current DR_Count\n/// @param _DR The index of the specified Discrepancy Report\nmodifier isValidDR(uint _DR)\n{\n  require(_DR <= DR_Count && _DR >=0, \"Invalid DR reference given.\");\n  _;\n}\n\n/******************************/\n/*          Events            */\n/******************************/\n/// @notice Logs submission of a new Discrepancy Report\n/// @param DR_Count The index of the specified Discrepancy Report\nevent LogSubmission(uint indexed DR_Count);\n\n/// @notice Logs acceptance of Discrepancy Report validity\n/// @param DR_Count The index of the specified Discrepancy Report\nevent LogAcceptance(uint indexed DR_Count);\n\n/// @notice Logs declination of Discrepancy Report validity\n/// @param DR_Count The index of the specified Discrepancy Report\nevent LogDeclination(uint indexed DR_Count);\n\n/// @notice Log that a Discrepancy Report has been resolved by the content owner.\n/// @param DR_Count The index of the specified Discrepancy Report\nevent LogResolved(uint indexed DR_Count);\n\n/// @notice Logs rejection of a Discrepancy Report resolution\n/// @param DR_Count The index of the specified Discrepancy Report\nevent LogRejected(uint indexed DR_Count);\n\n/// @notice Logs acceptance of a Discrepancy Report resolution\n/// @param DR_Count The index of the specified Discrepancy Report\nevent LogFixed(uint indexed DR_Count);\n\n/******************************/\n/*    Contract Functions      */\n/******************************/\n/// @notice Contract constructor\n  constructor() {\n    DR_Count = 0;\n  }\n\n  /// @notice Submission of a new DR\n  /// @dev Sumitter is msg.sender\n  /// @param _contentOwner The owner of the content the DR is written against\n  /// @param _discrepancy Complaint about the content from the submitter\n  function submitDR (address _contentOwner, string memory _discrepancy) public\n  {\n    discrepancyReports[DR_Count] = DiscrepancyReport({submitter: msg.sender,\n                                                      contentOwner: _contentOwner,\n                                                      state: State.New,\n                                                      discrepancy: _discrepancy });\n    assert(discrepancyReports[DR_Count].submitter == msg.sender);                                                    \n    emit LogSubmission(DR_Count);\n    DR_Count = DR_Count.add(1); // Safe Math!!!\n  } \n\n  /// @notice Content owner to accept or decline DR\n  /// @param _DR The index of the specified Discrepancy Report\n  /// @param _state State selection, only accepted or declined are valid\n  function determineValidity (uint _DR, State _state) public isValidDR(_DR) isContentOwner(_DR) \n  {\n    require(discrepancyReports[_DR].state == State.New, \"DR validity as already been determined.\");\n    require(_state == State.Accepted || _state == State.Declined, \"Invalid state selection.\");\n\n    discrepancyReports[_DR].state = _state;\n\n    if(_state == State.Accepted)\n    {\n      assert(discrepancyReports[_DR].state == State.Accepted);\n      emit LogAcceptance(_DR);      \n    }\n    else\n    {\n      assert(discrepancyReports[_DR].state == State.Declined);\n      emit LogDeclination(_DR);\n    }\n\n  }\n\n  /// @notice Content owner has resolved DR\n  /// @param _DR The index of the specified Discrepancy Report\n  function resolveDiscrepancyReport (uint _DR) public isValidDR(_DR) isContentOwner(_DR) \n  {\n    require(discrepancyReports[_DR].state == State.Accepted ||\n            discrepancyReports[_DR].state == State.Rejected,\n            \"DR must be of state 'Accepted' or 'Rejected'.\");\n\n    discrepancyReports[_DR].state = State.Resolved;\n    assert(discrepancyReports[_DR].state == State.Resolved);\n    emit LogResolved(DR_Count);\n  }\n\n  /// @notice Submitter may accept or reject the 'Resolved' DR\n  /// @param _DR The index of the specified Discrepancy Report\n  /// @param _state State selection, only rejected or fixed are valid\n  function evaluateResolution (uint _DR, State _state) public isValidDR(_DR)\n  {\n    require(discrepancyReports[_DR].submitter == msg.sender,\"Only Submitter can evaluate a submitted resolution.\");\n    require(discrepancyReports[_DR].state == State.Resolved, \"DR is not marked 'Resolved'.\");\n    require(_state == State.Fixed || _state == State.Rejected, \"Invalid state selection.\");\n\n    discrepancyReports[_DR].state = _state;\n    if(_state == State.Fixed)\n    {\n      assert(discrepancyReports[_DR].state == State.Fixed);\n      emit LogFixed(_DR);\n    } \n    else \n    {\n      assert(discrepancyReports[_DR].state == State.Rejected);\n      emit LogRejected(_DR);\n    }\n  }\n\n  /// @dev This function required for testing\n  function fetchDiscrepancyReport(uint _DR) public view \n    returns (address submitter,address contentOwner, State state, string memory discrepancy) \n  { \n    submitter = discrepancyReports[_DR].submitter;\n    contentOwner = discrepancyReports[_DR].contentOwner;\n    state = discrepancyReports[_DR].state;\n    discrepancy = discrepancyReports[_DR].discrepancy;\n\n    return (submitter, contentOwner, state, discrepancy); \n  } \n}\n",
  "sourcePath": "/home/nick/blockchain-developer-bootcamp-final-project/contracts/DiscrepancyReportManager.sol",
  "compiler": {
    "name": "solc",
    "version": "0.8.10+commit.fc410830.Emscripten.clang"
  },
  "schemaVersion": "3.4.3",
  "updatedAt": "2021-11-28T16:36:16.808Z",
  "networkType": "ethereum",
  "devdoc": {
    "author": "Nick McNally",
    "details": "Future implementation should include milti-signature authority for the content owner and submitter.",
    "events": {
      "LogAcceptance(uint256)": {
        "params": {
          "DR_Count": "The index of the specified Discrepancy Report"
        }
      },
      "LogDeclination(uint256)": {
        "params": {
          "DR_Count": "The index of the specified Discrepancy Report"
        }
      },
      "LogFixed(uint256)": {
        "params": {
          "DR_Count": "The index of the specified Discrepancy Report"
        }
      },
      "LogRejected(uint256)": {
        "params": {
          "DR_Count": "The index of the specified Discrepancy Report"
        }
      },
      "LogResolved(uint256)": {
        "params": {
          "DR_Count": "The index of the specified Discrepancy Report"
        }
      },
      "LogSubmission(uint256)": {
        "params": {
          "DR_Count": "The index of the specified Discrepancy Report"
        }
      }
    },
    "kind": "dev",
    "methods": {
      "determineValidity(uint256,uint8)": {
        "params": {
          "_DR": "The index of the specified Discrepancy Report",
          "_state": "State selection, only accepted or declined are valid"
        }
      },
      "evaluateResolution(uint256,uint8)": {
        "params": {
          "_DR": "The index of the specified Discrepancy Report",
          "_state": "State selection, only rejected or fixed are valid"
        }
      },
      "fetchDiscrepancyReport(uint256)": {
        "details": "This function required for testing"
      },
      "resolveDiscrepancyReport(uint256)": {
        "params": {
          "_DR": "The index of the specified Discrepancy Report"
        }
      },
      "submitDR(address,string)": {
        "details": "Sumitter is msg.sender",
        "params": {
          "_contentOwner": "The owner of the content the DR is written against",
          "_discrepancy": "Complaint about the content from the submitter"
        }
      }
    },
    "title": "A managment tool to track Discrepancy Report lifecycles",
    "version": 1
  },
  "userdoc": {
    "events": {
      "LogAcceptance(uint256)": {
        "notice": "Logs acceptance of Discrepancy Report validity"
      },
      "LogDeclination(uint256)": {
        "notice": "Logs declination of Discrepancy Report validity"
      },
      "LogFixed(uint256)": {
        "notice": "Logs acceptance of a Discrepancy Report resolution"
      },
      "LogRejected(uint256)": {
        "notice": "Logs rejection of a Discrepancy Report resolution"
      },
      "LogResolved(uint256)": {
        "notice": "Log that a Discrepancy Report has been resolved by the content owner."
      },
      "LogSubmission(uint256)": {
        "notice": "Logs submission of a new Discrepancy Report"
      }
    },
    "kind": "user",
    "methods": {
      "constructor": {
        "notice": "Contract constructor"
      },
      "determineValidity(uint256,uint8)": {
        "notice": "Content owner to accept or decline DR"
      },
      "evaluateResolution(uint256,uint8)": {
        "notice": "Submitter may accept or reject the 'Resolved' DR"
      },
      "resolveDiscrepancyReport(uint256)": {
        "notice": "Content owner has resolved DR"
      },
      "submitDR(address,string)": {
        "notice": "Submission of a new DR"
      }
    },
    "notice": "This contract will basically track the lifecycle of a Sumbitted DR",
    "version": 1
  }
}