{
  "contractName": "DiscrepancyReportManager",
  "abi": [
    {
      "inputs": [],
      "stateMutability": "nonpayable",
      "type": "constructor"
    },
    {
      "anonymous": false,
      "inputs": [
        {
          "indexed": true,
          "internalType": "uint256",
          "name": "DR_Count",
          "type": "uint256"
        }
      ],
      "name": "LogAcceptance",
      "type": "event"
    },
    {
      "anonymous": false,
      "inputs": [
        {
          "indexed": true,
          "internalType": "uint256",
          "name": "DR_Count",
          "type": "uint256"
        }
      ],
      "name": "LogDeclination",
      "type": "event"
    },
    {
      "anonymous": false,
      "inputs": [
        {
          "indexed": true,
          "internalType": "uint256",
          "name": "DR_Count",
          "type": "uint256"
        }
      ],
      "name": "LogFixed",
      "type": "event"
    },
    {
      "anonymous": false,
      "inputs": [
        {
          "indexed": true,
          "internalType": "uint256",
          "name": "DR_Count",
          "type": "uint256"
        }
      ],
      "name": "LogRejected",
      "type": "event"
    },
    {
      "anonymous": false,
      "inputs": [
        {
          "indexed": true,
          "internalType": "uint256",
          "name": "DR_Count",
          "type": "uint256"
        }
      ],
      "name": "LogResolved",
      "type": "event"
    },
    {
      "anonymous": false,
      "inputs": [
        {
          "indexed": true,
          "internalType": "uint256",
          "name": "DR_Count",
          "type": "uint256"
        }
      ],
      "name": "LogSubmission",
      "type": "event"
    },
    {
      "anonymous": false,
      "inputs": [
        {
          "indexed": true,
          "internalType": "bytes32",
          "name": "role",
          "type": "bytes32"
        },
        {
          "indexed": true,
          "internalType": "bytes32",
          "name": "previousAdminRole",
          "type": "bytes32"
        },
        {
          "indexed": true,
          "internalType": "bytes32",
          "name": "newAdminRole",
          "type": "bytes32"
        }
      ],
      "name": "RoleAdminChanged",
      "type": "event"
    },
    {
      "anonymous": false,
      "inputs": [
        {
          "indexed": true,
          "internalType": "bytes32",
          "name": "role",
          "type": "bytes32"
        },
        {
          "indexed": true,
          "internalType": "address",
          "name": "account",
          "type": "address"
        },
        {
          "indexed": true,
          "internalType": "address",
          "name": "sender",
          "type": "address"
        }
      ],
      "name": "RoleGranted",
      "type": "event"
    },
    {
      "anonymous": false,
      "inputs": [
        {
          "indexed": true,
          "internalType": "bytes32",
          "name": "role",
          "type": "bytes32"
        },
        {
          "indexed": true,
          "internalType": "address",
          "name": "account",
          "type": "address"
        },
        {
          "indexed": true,
          "internalType": "address",
          "name": "sender",
          "type": "address"
        }
      ],
      "name": "RoleRevoked",
      "type": "event"
    },
    {
      "inputs": [],
      "name": "DEFAULT_ADMIN_ROLE",
      "outputs": [
        {
          "internalType": "bytes32",
          "name": "",
          "type": "bytes32"
        }
      ],
      "stateMutability": "view",
      "type": "function",
      "constant": true
    },
    {
      "inputs": [],
      "name": "DR_Count",
      "outputs": [
        {
          "internalType": "uint256",
          "name": "",
          "type": "uint256"
        }
      ],
      "stateMutability": "view",
      "type": "function",
      "constant": true
    },
    {
      "inputs": [
        {
          "internalType": "bytes32",
          "name": "role",
          "type": "bytes32"
        }
      ],
      "name": "getRoleAdmin",
      "outputs": [
        {
          "internalType": "bytes32",
          "name": "",
          "type": "bytes32"
        }
      ],
      "stateMutability": "view",
      "type": "function",
      "constant": true
    },
    {
      "inputs": [
        {
          "internalType": "bytes32",
          "name": "role",
          "type": "bytes32"
        },
        {
          "internalType": "address",
          "name": "account",
          "type": "address"
        }
      ],
      "name": "grantRole",
      "outputs": [],
      "stateMutability": "nonpayable",
      "type": "function"
    },
    {
      "inputs": [
        {
          "internalType": "bytes32",
          "name": "role",
          "type": "bytes32"
        },
        {
          "internalType": "address",
          "name": "account",
          "type": "address"
        }
      ],
      "name": "hasRole",
      "outputs": [
        {
          "internalType": "bool",
          "name": "",
          "type": "bool"
        }
      ],
      "stateMutability": "view",
      "type": "function",
      "constant": true
    },
    {
      "inputs": [
        {
          "internalType": "bytes32",
          "name": "role",
          "type": "bytes32"
        },
        {
          "internalType": "address",
          "name": "account",
          "type": "address"
        }
      ],
      "name": "renounceRole",
      "outputs": [],
      "stateMutability": "nonpayable",
      "type": "function"
    },
    {
      "inputs": [
        {
          "internalType": "bytes32",
          "name": "role",
          "type": "bytes32"
        },
        {
          "internalType": "address",
          "name": "account",
          "type": "address"
        }
      ],
      "name": "revokeRole",
      "outputs": [],
      "stateMutability": "nonpayable",
      "type": "function"
    },
    {
      "inputs": [
        {
          "internalType": "bytes4",
          "name": "interfaceId",
          "type": "bytes4"
        }
      ],
      "name": "supportsInterface",
      "outputs": [
        {
          "internalType": "bool",
          "name": "",
          "type": "bool"
        }
      ],
      "stateMutability": "view",
      "type": "function",
      "constant": true
    },
    {
      "inputs": [
        {
          "internalType": "address",
          "name": "_contentOwner",
          "type": "address"
        },
        {
          "internalType": "string",
          "name": "_discrepancy",
          "type": "string"
        }
      ],
      "name": "submitDR",
      "outputs": [],
      "stateMutability": "nonpayable",
      "type": "function"
    },
    {
      "inputs": [
        {
          "internalType": "uint256",
          "name": "_DR",
          "type": "uint256"
        },
        {
          "internalType": "enum DiscrepancyReportManager.State",
          "name": "_state",
          "type": "uint8"
        }
      ],
      "name": "determineValidity",
      "outputs": [],
      "stateMutability": "nonpayable",
      "type": "function"
    },
    {
      "inputs": [
        {
          "internalType": "uint256",
          "name": "_DR",
          "type": "uint256"
        }
      ],
      "name": "resolveDiscrepancyReport",
      "outputs": [],
      "stateMutability": "nonpayable",
      "type": "function"
    },
    {
      "inputs": [
        {
          "internalType": "uint256",
          "name": "_DR",
          "type": "uint256"
        },
        {
          "internalType": "enum DiscrepancyReportManager.State",
          "name": "_state",
          "type": "uint8"
        }
      ],
      "name": "evaluateResolution",
      "outputs": [],
      "stateMutability": "nonpayable",
      "type": "function"
    },
    {
      "inputs": [
        {
          "internalType": "uint256",
          "name": "_DR",
          "type": "uint256"
        }
      ],
      "name": "fetchDiscrepancyReport",
      "outputs": [
        {
          "internalType": "address",
          "name": "submitter",
          "type": "address"
        },
        {
          "internalType": "address",
          "name": "contentOwner",
          "type": "address"
        },
        {
          "internalType": "enum DiscrepancyReportManager.State",
          "name": "state",
          "type": "uint8"
        },
        {
          "internalType": "string",
          "name": "discrepancy",
          "type": "string"
        }
      ],
      "stateMutability": "view",
      "type": "function",
      "constant": true
    }
  ],
  "bytecode": "0x60806040523480156200001157600080fd5b50620000276000801b336200003560201b60201c565b6000600181905550620001ae565b6200004782826200004b60201b60201c565b5050565b6200005d82826200013c60201b60201c565b6200013857600160008084815260200190815260200160002060000160008373ffffffffffffffffffffffffffffffffffffffff1673ffffffffffffffffffffffffffffffffffffffff16815260200190815260200160002060006101000a81548160ff021916908315150217905550620000dd620001a660201b60201c565b73ffffffffffffffffffffffffffffffffffffffff168173ffffffffffffffffffffffffffffffffffffffff16837f2f8788117e7eff1d82e926ec794901d17c78024a50270940304540a733656f0d60405160405180910390a45b5050565b600080600084815260200190815260200160002060000160008373ffffffffffffffffffffffffffffffffffffffff1673ffffffffffffffffffffffffffffffffffffffff16815260200190815260200160002060009054906101000a900460ff16905092915050565b600033905090565b6124e180620001be6000396000f3fe608060405234801561001057600080fd5b50600436106100cf5760003560e01c806391d148541161008c578063a217fddf11610066578063a217fddf14610225578063d547741f14610243578063d8c15f4c1461025f578063d9cc75571461027b576100cf565b806391d14854146101bb57806398098f11146101eb578063a1aa9d3914610209576100cf565b806301ffc9a7146100d4578063248a9ca3146101045780632f2ff15d1461013457806336568abe1461015057806353c69e581461016c57806382f2c4b014610188575b600080fd5b6100ee60048036038101906100e99190611764565b610297565b6040516100fb91906117ac565b60405180910390f35b61011e600480360381019061011991906117fd565b610311565b60405161012b9190611839565b60405180910390f35b61014e600480360381019061014991906118b2565b610330565b005b61016a600480360381019061016591906118b2565b610359565b005b6101866004803603810190610181919061194d565b6103dc565b005b6101a2600480360381019061019d919061198d565b610775565b6040516101b29493929190611ad9565b60405180910390f35b6101d560048036038101906101d091906118b2565b6108bc565b6040516101e291906117ac565b60405180910390f35b6101f3610926565b6040516102009190611b34565b60405180910390f35b610223600480360381019061021e9190611c84565b61092c565b005b61022d610b3e565b60405161023a9190611839565b60405180910390f35b61025d600480360381019061025891906118b2565b610b45565b005b6102796004803603810190610274919061198d565b610b6e565b005b6102956004803603810190610290919061194d565b610e0d565b005b60007f7965db0b000000000000000000000000000000000000000000000000000000007bffffffffffffffffffffffffffffffffffffffffffffffffffffffff1916827bffffffffffffffffffffffffffffffffffffffffffffffffffffffff1916148061030a575061030982611149565b5b9050919050565b6000806000838152602001908152602001600020600101549050919050565b61033982610311565b61034a816103456111b3565b6111bb565b6103548383611258565b505050565b6103616111b3565b73ffffffffffffffffffffffffffffffffffffffff168173ffffffffffffffffffffffffffffffffffffffff16146103ce576040517f08c379a00000000000000000000000000000000000000000000000000000000081526004016103c590611d52565b60405180910390fd5b6103d88282611338565b5050565b8160015481111580156103f0575060008110155b61042f576040517f08c379a000000000000000000000000000000000000000000000000000000000815260040161042690611dbe565b60405180910390fd5b826002600082815260200190815260200160002060010160009054906101000a900473ffffffffffffffffffffffffffffffffffffffff1673ffffffffffffffffffffffffffffffffffffffff163373ffffffffffffffffffffffffffffffffffffffff16146104d4576040517f08c379a00000000000000000000000000000000000000000000000000000000081526004016104cb90611e50565b60405180910390fd5b600060058111156104e8576104e76119c9565b5b6002600086815260200190815260200160002060010160149054906101000a900460ff16600581111561051e5761051d6119c9565b5b1461055e576040517f08c379a000000000000000000000000000000000000000000000000000000000815260040161055590611ee2565b60405180910390fd5b60026005811115610572576105716119c9565b5b836005811115610585576105846119c9565b5b14806105b55750600160058111156105a05761059f6119c9565b5b8360058111156105b3576105b26119c9565b5b145b6105f4576040517f08c379a00000000000000000000000000000000000000000000000000000000081526004016105eb90611f4e565b60405180910390fd5b826002600086815260200190815260200160002060010160146101000a81548160ff0219169083600581111561062d5761062c6119c9565b5b021790555060026005811115610646576106456119c9565b5b836005811115610659576106586119c9565b5b14156106e95760026005811115610673576106726119c9565b5b6002600086815260200190815260200160002060010160149054906101000a900460ff1660058111156106a9576106a86119c9565b5b146106b7576106b6611f6e565b5b837f4bd3d18682a1fd69d75a3bd1d2ea969787618836e29c41ce5b259cd4a868617860405160405180910390a261076f565b600160058111156106fd576106fc6119c9565b5b6002600086815260200190815260200160002060010160149054906101000a900460ff166005811115610733576107326119c9565b5b1461074157610740611f6e565b5b837fd3431b7a76689be76fd394b9277c38283eae793121ad3313ef2f560806b5116160405160405180910390a25b50505050565b600080600060606002600086815260200190815260200160002060000160009054906101000a900473ffffffffffffffffffffffffffffffffffffffff1693506002600086815260200190815260200160002060010160009054906101000a900473ffffffffffffffffffffffffffffffffffffffff1692506002600086815260200190815260200160002060010160149054906101000a900460ff16915060026000868152602001908152602001600020600201805461083590611fcc565b80601f016020809104026020016040519081016040528092919081815260200182805461086190611fcc565b80156108ae5780601f10610883576101008083540402835291602001916108ae565b820191906000526020600020905b81548152906001019060200180831161089157829003601f168201915b505050505090509193509193565b600080600084815260200190815260200160002060000160008373ffffffffffffffffffffffffffffffffffffffff1673ffffffffffffffffffffffffffffffffffffffff16815260200190815260200160002060009054906101000a900460ff16905092915050565b60015481565b60405180608001604052803373ffffffffffffffffffffffffffffffffffffffff1681526020018373ffffffffffffffffffffffffffffffffffffffff16815260200160006005811115610983576109826119c9565b5b81526020018281525060026000600154815260200190815260200160002060008201518160000160006101000a81548173ffffffffffffffffffffffffffffffffffffffff021916908373ffffffffffffffffffffffffffffffffffffffff16021790555060208201518160010160006101000a81548173ffffffffffffffffffffffffffffffffffffffff021916908373ffffffffffffffffffffffffffffffffffffffff16021790555060408201518160010160146101000a81548160ff02191690836005811115610a5a57610a596119c9565b5b02179055506060820151816002019080519060200190610a7b929190611655565b509050503373ffffffffffffffffffffffffffffffffffffffff1660026000600154815260200190815260200160002060000160009054906101000a900473ffffffffffffffffffffffffffffffffffffffff1673ffffffffffffffffffffffffffffffffffffffff1614610af357610af2611f6e565b5b6001547fd62d83caa46521107db3e5a401d129bcae76aef7525e541331277ecec11cdefd60405160405180910390a260016000815480929190610b359061202d565b91905055505050565b6000801b81565b610b4e82610311565b610b5f81610b5a6111b3565b6111bb565b610b698383611338565b505050565b806001548111158015610b82575060008110155b610bc1576040517f08c379a0000000000000000000000000000000000000000000000000000000008152600401610bb890611dbe565b60405180910390fd5b816002600082815260200190815260200160002060010160009054906101000a900473ffffffffffffffffffffffffffffffffffffffff1673ffffffffffffffffffffffffffffffffffffffff163373ffffffffffffffffffffffffffffffffffffffff1614610c66576040517f08c379a0000000000000000000000000000000000000000000000000000000008152600401610c5d90611e50565b60405180910390fd5b60026005811115610c7a57610c796119c9565b5b6002600085815260200190815260200160002060010160149054906101000a900460ff166005811115610cb057610caf6119c9565b5b1480610d03575060046005811115610ccb57610cca6119c9565b5b6002600085815260200190815260200160002060010160149054906101000a900460ff166005811115610d0157610d006119c9565b5b145b610d42576040517f08c379a0000000000000000000000000000000000000000000000000000000008152600401610d39906120e8565b60405180910390fd5b60036002600085815260200190815260200160002060010160146101000a81548160ff02191690836005811115610d7c57610d7b6119c9565b5b021790555060036005811115610d9557610d946119c9565b5b6002600085815260200190815260200160002060010160149054906101000a900460ff166005811115610dcb57610dca6119c9565b5b14610dd957610dd8611f6e565b5b6001547f0839b2dd84b8473ba2285ef6544968625639ab81422b4021937c9eb7d71d1f2c60405160405180910390a2505050565b816001548111158015610e21575060008110155b610e60576040517f08c379a0000000000000000000000000000000000000000000000000000000008152600401610e5790611dbe565b60405180910390fd5b610e6d6000801b336108bc565b610eac576040517f08c379a0000000000000000000000000000000000000000000000000000000008152600401610ea39061217a565b60405180910390fd5b60036005811115610ec057610ebf6119c9565b5b6002600085815260200190815260200160002060010160149054906101000a900460ff166005811115610ef657610ef56119c9565b5b14610f36576040517f08c379a0000000000000000000000000000000000000000000000000000000008152600401610f2d906121e6565b60405180910390fd5b600580811115610f4957610f486119c9565b5b826005811115610f5c57610f5b6119c9565b5b1480610f8c575060046005811115610f7757610f766119c9565b5b826005811115610f8a57610f896119c9565b5b145b610fcb576040517f08c379a0000000000000000000000000000000000000000000000000000000008152600401610fc290611f4e565b60405180910390fd5b816002600085815260200190815260200160002060010160146101000a81548160ff02191690836005811115611004576110036119c9565b5b021790555060058081111561101c5761101b6119c9565b5b82600581111561102f5761102e6119c9565b5b14156110be57600580811115611048576110476119c9565b5b6002600085815260200190815260200160002060010160149054906101000a900460ff16600581111561107e5761107d6119c9565b5b1461108c5761108b611f6e565b5b827f199ad69fe81f9a3f531a762217d9532615420f21a5105500bdda0ed40e5e7abe60405160405180910390a2611144565b600460058111156110d2576110d16119c9565b5b6002600085815260200190815260200160002060010160149054906101000a900460ff166005811115611108576111076119c9565b5b1461111657611115611f6e565b5b827fc0bb406031e51b3376c798dac5e21d7b041ffce1d9fcd17ecd003e0c205a74db60405160405180910390a25b505050565b60007f01ffc9a7000000000000000000000000000000000000000000000000000000007bffffffffffffffffffffffffffffffffffffffffffffffffffffffff1916827bffffffffffffffffffffffffffffffffffffffffffffffffffffffff1916149050919050565b600033905090565b6111c582826108bc565b611254576111ea8173ffffffffffffffffffffffffffffffffffffffff166014611419565b6111f88360001c6020611419565b6040516020016112099291906122da565b6040516020818303038152906040526040517f08c379a000000000000000000000000000000000000000000000000000000000815260040161124b9190612314565b60405180910390fd5b5050565b61126282826108bc565b61133457600160008084815260200190815260200160002060000160008373ffffffffffffffffffffffffffffffffffffffff1673ffffffffffffffffffffffffffffffffffffffff16815260200190815260200160002060006101000a81548160ff0219169083151502179055506112d96111b3565b73ffffffffffffffffffffffffffffffffffffffff168173ffffffffffffffffffffffffffffffffffffffff16837f2f8788117e7eff1d82e926ec794901d17c78024a50270940304540a733656f0d60405160405180910390a45b5050565b61134282826108bc565b1561141557600080600084815260200190815260200160002060000160008373ffffffffffffffffffffffffffffffffffffffff1673ffffffffffffffffffffffffffffffffffffffff16815260200190815260200160002060006101000a81548160ff0219169083151502179055506113ba6111b3565b73ffffffffffffffffffffffffffffffffffffffff168173ffffffffffffffffffffffffffffffffffffffff16837ff6391f5c32d9c69d2a47ea670b442974b53935d1edc7fd64eb21e047a839171b60405160405180910390a45b5050565b60606000600283600261142c9190612336565b6114369190612390565b67ffffffffffffffff81111561144f5761144e611b59565b5b6040519080825280601f01601f1916602001820160405280156114815781602001600182028036833780820191505090505b5090507f3000000000000000000000000000000000000000000000000000000000000000816000815181106114b9576114b86123e6565b5b60200101907effffffffffffffffffffffffffffffffffffffffffffffffffffffffffffff1916908160001a9053507f78000000000000000000000000000000000000000000000000000000000000008160018151811061151d5761151c6123e6565b5b60200101907effffffffffffffffffffffffffffffffffffffffffffffffffffffffffffff1916908160001a9053506000600184600261155d9190612336565b6115679190612390565b90505b6001811115611607577f3031323334353637383961626364656600000000000000000000000000000000600f8616601081106115a9576115a86123e6565b5b1a60f81b8282815181106115c0576115bf6123e6565b5b60200101907effffffffffffffffffffffffffffffffffffffffffffffffffffffffffffff1916908160001a905350600485901c94508061160090612415565b905061156a565b506000841461164b576040517f08c379a00000000000000000000000000000000000000000000000000000000081526004016116429061248b565b60405180910390fd5b8091505092915050565b82805461166190611fcc565b90600052602060002090601f01602090048101928261168357600085556116ca565b82601f1061169c57805160ff19168380011785556116ca565b828001600101855582156116ca579182015b828111156116c95782518255916020019190600101906116ae565b5b5090506116d791906116db565b5090565b5b808211156116f45760008160009055506001016116dc565b5090565b6000604051905090565b600080fd5b600080fd5b60007fffffffff0000000000000000000000000000000000000000000000000000000082169050919050565b6117418161170c565b811461174c57600080fd5b50565b60008135905061175e81611738565b92915050565b60006020828403121561177a57611779611702565b5b60006117888482850161174f565b91505092915050565b60008115159050919050565b6117a681611791565b82525050565b60006020820190506117c1600083018461179d565b92915050565b6000819050919050565b6117da816117c7565b81146117e557600080fd5b50565b6000813590506117f7816117d1565b92915050565b60006020828403121561181357611812611702565b5b6000611821848285016117e8565b91505092915050565b611833816117c7565b82525050565b600060208201905061184e600083018461182a565b92915050565b600073ffffffffffffffffffffffffffffffffffffffff82169050919050565b600061187f82611854565b9050919050565b61188f81611874565b811461189a57600080fd5b50565b6000813590506118ac81611886565b92915050565b600080604083850312156118c9576118c8611702565b5b60006118d7858286016117e8565b92505060206118e88582860161189d565b9150509250929050565b6000819050919050565b611905816118f2565b811461191057600080fd5b50565b600081359050611922816118fc565b92915050565b6006811061193557600080fd5b50565b60008135905061194781611928565b92915050565b6000806040838503121561196457611963611702565b5b600061197285828601611913565b925050602061198385828601611938565b9150509250929050565b6000602082840312156119a3576119a2611702565b5b60006119b184828501611913565b91505092915050565b6119c381611874565b82525050565b7f4e487b7100000000000000000000000000000000000000000000000000000000600052602160045260246000fd5b60068110611a0957611a086119c9565b5b50565b6000819050611a1a826119f8565b919050565b6000611a2a82611a0c565b9050919050565b611a3a81611a1f565b82525050565b600081519050919050565b600082825260208201905092915050565b60005b83811015611a7a578082015181840152602081019050611a5f565b83811115611a89576000848401525b50505050565b6000601f19601f8301169050919050565b6000611aab82611a40565b611ab58185611a4b565b9350611ac5818560208601611a5c565b611ace81611a8f565b840191505092915050565b6000608082019050611aee60008301876119ba565b611afb60208301866119ba565b611b086040830185611a31565b8181036060830152611b1a8184611aa0565b905095945050505050565b611b2e816118f2565b82525050565b6000602082019050611b496000830184611b25565b92915050565b600080fd5b600080fd5b7f4e487b7100000000000000000000000000000000000000000000000000000000600052604160045260246000fd5b611b9182611a8f565b810181811067ffffffffffffffff82111715611bb057611baf611b59565b5b80604052505050565b6000611bc36116f8565b9050611bcf8282611b88565b919050565b600067ffffffffffffffff821115611bef57611bee611b59565b5b611bf882611a8f565b9050602081019050919050565b82818337600083830152505050565b6000611c27611c2284611bd4565b611bb9565b905082815260208101848484011115611c4357611c42611b54565b5b611c4e848285611c05565b509392505050565b600082601f830112611c6b57611c6a611b4f565b5b8135611c7b848260208601611c14565b91505092915050565b60008060408385031215611c9b57611c9a611702565b5b6000611ca98582860161189d565b925050602083013567ffffffffffffffff811115611cca57611cc9611707565b5b611cd685828601611c56565b9150509250929050565b7f416363657373436f6e74726f6c3a2063616e206f6e6c792072656e6f756e636560008201527f20726f6c657320666f722073656c660000000000000000000000000000000000602082015250565b6000611d3c602f83611a4b565b9150611d4782611ce0565b604082019050919050565b60006020820190508181036000830152611d6b81611d2f565b9050919050565b7f496e76616c6964204452207265666572656e636520676976656e2e0000000000600082015250565b6000611da8601b83611a4b565b9150611db382611d72565b602082019050919050565b60006020820190508181036000830152611dd781611d9b565b9050919050565b7f4f6e6c7920436f6e74656e74204f776e65722063616e2061636365737320746860008201527f69732e0000000000000000000000000000000000000000000000000000000000602082015250565b6000611e3a602383611a4b565b9150611e4582611dde565b604082019050919050565b60006020820190508181036000830152611e6981611e2d565b9050919050565b7f44522076616c696469747920617320616c7265616479206265656e206465746560008201527f726d696e65642e00000000000000000000000000000000000000000000000000602082015250565b6000611ecc602783611a4b565b9150611ed782611e70565b604082019050919050565b60006020820190508181036000830152611efb81611ebf565b9050919050565b7f496e76616c69642073746174652073656c656374696f6e2e0000000000000000600082015250565b6000611f38601883611a4b565b9150611f4382611f02565b602082019050919050565b60006020820190508181036000830152611f6781611f2b565b9050919050565b7f4e487b7100000000000000000000000000000000000000000000000000000000600052600160045260246000fd5b7f4e487b7100000000000000000000000000000000000000000000000000000000600052602260045260246000fd5b60006002820490506001821680611fe457607f821691505b60208210811415611ff857611ff7611f9d565b5b50919050565b7f4e487b7100000000000000000000000000000000000000000000000000000000600052601160045260246000fd5b6000612038826118f2565b91507fffffffffffffffffffffffffffffffffffffffffffffffffffffffffffffffff82141561206b5761206a611ffe565b5b600182019050919050565b7f4452206d757374206265206f662073746174652027416363657074656427206f60008201527f72202752656a6563746564272e00000000000000000000000000000000000000602082015250565b60006120d2602d83611a4b565b91506120dd82612076565b604082019050919050565b60006020820190508181036000830152612101816120c5565b9050919050565b7f4f6e6c7920417070726f76616c20417574686f726974792063616e206576616c60008201527f756174652061207375626d6974746564207265736f6c7574696f6e2e00000000602082015250565b6000612164603c83611a4b565b915061216f82612108565b604082019050919050565b6000602082019050818103600083015261219381612157565b9050919050565b7f4452206973206e6f74206d61726b656420275265736f6c766564272e00000000600082015250565b60006121d0601c83611a4b565b91506121db8261219a565b602082019050919050565b600060208201905081810360008301526121ff816121c3565b9050919050565b600081905092915050565b7f416363657373436f6e74726f6c3a206163636f756e7420000000000000000000600082015250565b6000612247601783612206565b915061225282612211565b601782019050919050565b600061226882611a40565b6122728185612206565b9350612282818560208601611a5c565b80840191505092915050565b7f206973206d697373696e6720726f6c6520000000000000000000000000000000600082015250565b60006122c4601183612206565b91506122cf8261228e565b601182019050919050565b60006122e58261223a565b91506122f1828561225d565b91506122fc826122b7565b9150612308828461225d565b91508190509392505050565b6000602082019050818103600083015261232e8184611aa0565b905092915050565b6000612341826118f2565b915061234c836118f2565b9250817fffffffffffffffffffffffffffffffffffffffffffffffffffffffffffffffff048311821515161561238557612384611ffe565b5b828202905092915050565b600061239b826118f2565b91506123a6836118f2565b9250827fffffffffffffffffffffffffffffffffffffffffffffffffffffffffffffffff038211156123db576123da611ffe565b5b828201905092915050565b7f4e487b7100000000000000000000000000000000000000000000000000000000600052603260045260246000fd5b6000612420826118f2565b9150600082141561243457612433611ffe565b5b600182039050919050565b7f537472696e67733a20686578206c656e67746820696e73756666696369656e74600082015250565b6000612475602083611a4b565b91506124808261243f565b602082019050919050565b600060208201905081810360008301526124a481612468565b905091905056fea26469706673582212204a153a37a324e3b938d91bc129036100263817bd6de88e8687c664b4ad87ce3f64736f6c634300080a0033",
  "immutableReferences": {},
  "source": "// SPDX-License-Identifier: MIT\npragma solidity 0.8.10;\n\nimport \"@openzeppelin/contracts/access/AccessControl.sol\";\n\n/// @title A managment tool to track Discrepancy Report lifecycles\n/// @author Nick McNally\n/// @notice This contract will basically track the lifecycle of a Sumbitted DR\n/// @dev Future implementation should include milti-signature for the content owner and approval autority.\ncontract DiscrepancyReportManager is AccessControl{\n  uint public DR_Count;\n  mapping (uint => DiscrepancyReport) discrepancyReports;\n\n  enum State\n  {\n    New,\n    Declined,\n    Accepted,\n    Resolved,\n    Rejected,\n    Fixed\n  }\n\n  struct DiscrepancyReport\n  {\n    address submitter;\n    address contentOwner;\n    State state;\n    string discrepancy;\n  }\n\n/******************************/\n/*        Modifiers           */\n/******************************/\n/// @notice Only the owner of the content the DR is written against may access certain functions.\n/// @dev There is no modifier like this for the Approval authority as they only have one access restriced function.\n/// @param _DR The index of the specified Discrepancy Report\nmodifier isContentOwner(uint _DR)\n{\n  require(msg.sender == discrepancyReports[_DR].contentOwner, \"Only Content Owner can access this.\");\n  _;\n}\n/// @notice DR submitted must be within current DR_Count\n/// @param _DR The index of the specified Discrepancy Report\nmodifier isValidDR(uint _DR)\n{\n  require(_DR <= DR_Count && _DR >=0, \"Invalid DR reference given.\");\n  _;\n}\n\n/******************************/\n/*          Events            */\n/******************************/\n/// @notice Logs submission of a new Discrepancy Report\n/// @param DR_Count The index of the specified Discrepancy Report\nevent LogSubmission(uint indexed DR_Count);\n\n/// @notice Logs acceptance of Discrepancy Report validity\n/// @param DR_Count The index of the specified Discrepancy Report\nevent LogAcceptance(uint indexed DR_Count);\n\n/// @notice Logs declination of Discrepancy Report validity\n/// @param DR_Count The index of the specified Discrepancy Report\nevent LogDeclination(uint indexed DR_Count);\n\n/// @notice Log that a Discrepancy Report has been resolved by the content owner.\n/// @param DR_Count The index of the specified Discrepancy Report\nevent LogResolved(uint indexed DR_Count);\n\n/// @notice Logs rejection of a Discrepancy Report resolution\n/// @param DR_Count The index of the specified Discrepancy Report\nevent LogRejected(uint indexed DR_Count);\n\n/// @notice Logs acceptance of a Discrepancy Report resolution\n/// @param DR_Count The index of the specified Discrepancy Report\nevent LogFixed(uint indexed DR_Count);\n\n/******************************/\n/*    Contract Functions      */\n/******************************/\n/// @notice Contract constructor\n/** @dev The Approval Authority is currently the address that \n    instantiates the contract, represented by the DEFAULT_ADMIN_ROLE\n    through OpenZeppelin's AccessControl.sol. Future progress should \n    allow graceful transfer and addition of Approval Authority.*/ \n  constructor() {\n    _setupRole(DEFAULT_ADMIN_ROLE, msg.sender);\n    DR_Count = 0;\n  }\n\n  /// @notice Submission of a new DR\n  /// @dev Sumitter is msg.sender\n  /// @param _contentOwner The owner of the content the DR is written against\n  /// @param _discrepancy Complaint about the content from the submitter\n  function submitDR (address _contentOwner, string memory _discrepancy) public\n  {\n    discrepancyReports[DR_Count] = DiscrepancyReport({submitter: msg.sender,\n                                                      contentOwner: _contentOwner,\n                                                      state: State.New,\n                                                      discrepancy: _discrepancy });\n    assert(discrepancyReports[DR_Count].submitter == msg.sender);                                                    \n    emit LogSubmission(DR_Count);\n    DR_Count ++;\n  } \n\n  /// @notice Content owner to accept or decline DR\n  /// @param _DR The index of the specified Discrepancy Report\n  /// @param _state State selection, only accepted or declined are valid\n  function determineValidity (uint _DR, State _state) public isValidDR(_DR) isContentOwner(_DR) \n  {\n    require(discrepancyReports[_DR].state == State.New, \"DR validity as already been determined.\");\n    require(_state == State.Accepted || _state == State.Declined, \"Invalid state selection.\");\n\n    discrepancyReports[_DR].state = _state;\n\n    if(_state == State.Accepted)\n    {\n      assert(discrepancyReports[_DR].state == State.Accepted);\n      emit LogAcceptance(_DR);      \n    }\n    else\n    {\n      assert(discrepancyReports[_DR].state == State.Declined);\n      emit LogDeclination(_DR);\n    }\n\n  }\n\n  /// @notice Content owner has resolved DR\n  /// @param _DR The index of the specified Discrepancy Report\n  function resolveDiscrepancyReport (uint _DR) public isValidDR(_DR) isContentOwner(_DR) \n  {\n    require(discrepancyReports[_DR].state == State.Accepted ||\n            discrepancyReports[_DR].state == State.Rejected,\n            \"DR must be of state 'Accepted' or 'Rejected'.\");\n\n    discrepancyReports[_DR].state = State.Resolved;\n    assert(discrepancyReports[_DR].state == State.Resolved);\n    emit LogResolved(DR_Count);\n  }\n\n  /// @notice Approval Authority may accept or reject the 'Resolved' DR\n  /// @param _DR The index of the specified Discrepancy Report\n  /// @param _state State selection, only rejected or fixed are valid\n  function evaluateResolution (uint _DR, State _state) public isValidDR(_DR)\n  {\n    require(hasRole(DEFAULT_ADMIN_ROLE, msg.sender),\"Only Approval Authority can evaluate a submitted resolution.\");\n    require(discrepancyReports[_DR].state == State.Resolved, \"DR is not marked 'Resolved'.\");\n    require(_state == State.Fixed || _state == State.Rejected, \"Invalid state selection.\");\n\n    discrepancyReports[_DR].state = _state;\n    if(_state == State.Fixed)\n    {\n      assert(discrepancyReports[_DR].state == State.Fixed);\n      emit LogFixed(_DR);\n    } \n    else \n    {\n      assert(discrepancyReports[_DR].state == State.Rejected);\n      emit LogRejected(_DR);\n    }\n  }\n\n  /// @dev This function required for testing\n  function fetchDiscrepancyReport(uint _DR) public view \n    returns (address submitter,address contentOwner, State state, string memory discrepancy) \n  { \n    submitter = discrepancyReports[_DR].submitter;\n    contentOwner = discrepancyReports[_DR].contentOwner;\n    state = discrepancyReports[_DR].state;\n    discrepancy = discrepancyReports[_DR].discrepancy;\n\n    return (submitter, contentOwner, state, discrepancy); \n  } \n}\n",
  "sourcePath": "/home/nick/blockchain-developer-bootcamp-final-project/contracts/DiscrepancyReportManager.sol",
  "compiler": {
    "name": "solc",
    "version": "0.8.10+commit.fc410830.Emscripten.clang"
  },
  "schemaVersion": "3.4.3",
  "updatedAt": "2021-11-25T19:06:21.732Z",
  "networkType": "ethereum",
  "devdoc": {
    "author": "Nick McNally",
    "details": "Future implementation should include milti-signature for the content owner and approval autority.",
    "events": {
      "LogAcceptance(uint256)": {
        "params": {
          "DR_Count": "The index of the specified Discrepancy Report"
        }
      },
      "LogDeclination(uint256)": {
        "params": {
          "DR_Count": "The index of the specified Discrepancy Report"
        }
      },
      "LogFixed(uint256)": {
        "params": {
          "DR_Count": "The index of the specified Discrepancy Report"
        }
      },
      "LogRejected(uint256)": {
        "params": {
          "DR_Count": "The index of the specified Discrepancy Report"
        }
      },
      "LogResolved(uint256)": {
        "params": {
          "DR_Count": "The index of the specified Discrepancy Report"
        }
      },
      "LogSubmission(uint256)": {
        "params": {
          "DR_Count": "The index of the specified Discrepancy Report"
        }
      }
    },
    "kind": "dev",
    "methods": {
      "constructor": {
        "details": "The Approval Authority is currently the address that  instantiates the contract, represented by the DEFAULT_ADMIN_ROLE through OpenZeppelin's AccessControl.sol. Future progress should  allow graceful transfer and addition of Approval Authority."
      },
      "determineValidity(uint256,uint8)": {
        "params": {
          "_DR": "The index of the specified Discrepancy Report",
          "_state": "State selection, only accepted or declined are valid"
        }
      },
      "evaluateResolution(uint256,uint8)": {
        "params": {
          "_DR": "The index of the specified Discrepancy Report",
          "_state": "State selection, only rejected or fixed are valid"
        }
      },
      "fetchDiscrepancyReport(uint256)": {
        "details": "This function required for testing"
      },
      "getRoleAdmin(bytes32)": {
        "details": "Returns the admin role that controls `role`. See {grantRole} and {revokeRole}. To change a role's admin, use {_setRoleAdmin}."
      },
      "grantRole(bytes32,address)": {
        "details": "Grants `role` to `account`. If `account` had not been already granted `role`, emits a {RoleGranted} event. Requirements: - the caller must have ``role``'s admin role."
      },
      "hasRole(bytes32,address)": {
        "details": "Returns `true` if `account` has been granted `role`."
      },
      "renounceRole(bytes32,address)": {
        "details": "Revokes `role` from the calling account. Roles are often managed via {grantRole} and {revokeRole}: this function's purpose is to provide a mechanism for accounts to lose their privileges if they are compromised (such as when a trusted device is misplaced). If the calling account had been granted `role`, emits a {RoleRevoked} event. Requirements: - the caller must be `account`."
      },
      "resolveDiscrepancyReport(uint256)": {
        "params": {
          "_DR": "The index of the specified Discrepancy Report"
        }
      },
      "revokeRole(bytes32,address)": {
        "details": "Revokes `role` from `account`. If `account` had been granted `role`, emits a {RoleRevoked} event. Requirements: - the caller must have ``role``'s admin role."
      },
      "submitDR(address,string)": {
        "details": "Sumitter is msg.sender",
        "params": {
          "_contentOwner": "The owner of the content the DR is written against",
          "_discrepancy": "Complaint about the content from the submitter"
        }
      },
      "supportsInterface(bytes4)": {
        "details": "See {IERC165-supportsInterface}."
      }
    },
    "title": "A managment tool to track Discrepancy Report lifecycles",
    "version": 1
  },
  "userdoc": {
    "events": {
      "LogAcceptance(uint256)": {
        "notice": "Logs acceptance of Discrepancy Report validity"
      },
      "LogDeclination(uint256)": {
        "notice": "Logs declination of Discrepancy Report validity"
      },
      "LogFixed(uint256)": {
        "notice": "Logs acceptance of a Discrepancy Report resolution"
      },
      "LogRejected(uint256)": {
        "notice": "Logs rejection of a Discrepancy Report resolution"
      },
      "LogResolved(uint256)": {
        "notice": "Log that a Discrepancy Report has been resolved by the content owner."
      },
      "LogSubmission(uint256)": {
        "notice": "Logs submission of a new Discrepancy Report"
      }
    },
    "kind": "user",
    "methods": {
      "determineValidity(uint256,uint8)": {
        "notice": "Content owner to accept or decline DR"
      },
      "evaluateResolution(uint256,uint8)": {
        "notice": "Approval Authority may accept or reject the 'Resolved' DR"
      },
      "resolveDiscrepancyReport(uint256)": {
        "notice": "Content owner has resolved DR"
      },
      "submitDR(address,string)": {
        "notice": "Submission of a new DR"
      }
    },
    "notice": "This contract will basically track the lifecycle of a Sumbitted DR",
    "version": 1
  }
}